:020000040800F2
:10000000000001202D7000081D2400081F24000896
:1000100021240008232400082524000800000000F3
:100020000000000000000000000000001156000861
:100030002724000800000000B1560008F55600080B
:10004000717000087170000871700008717000080C
:1000500071700008717000087170000871700008FC
:100060007170000871700008717000082924000880
:100070007170000871700008717000083924000860
:1000800071700008717000087170000871700008CC
:100090004924000871700008717000087170000830
:1000A00071700008717000087170000871700008AC
:1000B000717000087170000871700008717000089C
:1000C000717000087170000871700008717000088C
:1000D000717000087170000871700008717000087C
:1000E0007170000871700008717000080000000055
:1000F0000000000000000000000000000000000000
:10010000000000000000000071700008717000081D
:10011000717000087170000871700008592400089F
:10012000717000087170000871700008692400087F
:100130007924000800000000000000007170000831
:10014000717000088924000871700008717000083F
:10015000000000000000000000000000000000009F
:10016000000000000000000000000000000000008F
:10017000000000000000000000000000000000007F
:10018000000000000000000000000000000000006F
:10019000000000000000000000000000000000005F
:1001A000000000000000000000000000000000004F
:1001B000000000000000000000000000000000003F
:1001C000000000000000000000000000000000002F
:1001D000000000000000000000000000000000001F
:0401E0005FF8E0F1F3
:1001F000044B05481B1A062B02D9044B03B11847C0
:10020000704700BF430400204004002000000000AD
:1002100005490648091A891001EBD171491002D02D
:10022000034B03B1184770474004002040040020EE
:100230000000000010B5064C237843B9FFF7D8FF43
:10024000044B13B10448AFF300800123237010BDA9
:1002500040040020000000008870000808B5084B2A
:100260001BB108490848AFF300800848036813B978
:10027000BDE80840CCE7064B002BF9D09847F7E7DC
:1002800000000000440400208870000840040020A2
:1002900000000000002301461A46184600F0DEB8B0
:1002A00038B50A4C0A4D641BA4100AD004F18043EF
:1002B000013B05EB8305013C55F804399847002CB8
:1002C000F9D1BDE8384006F0E5BE00BFCC710008AA
:1002D000C8710008844641EA000313F0030349D1C2
:1002E000403A23D30B6803604B6843608B6883609C
:1002F000CB68C3600B6903614B6943618B698361A0
:10030000CB69C3610B6A03624B6A43628B6A836287
:10031000CB6AC3620B6B03634B6B43638B6B83636F
:10032000CB6BC36340304031403ADBD230320BD329
:100330000B6803604B6843608B688360CB68C36065
:1003400010301031103AF3D20C3205D351F8043B7F
:1003500040F8043B043AF9D2043208D0D2071CBF5B
:1003600011F8013B00F8013B01D30B880380604684
:10037000704700BF082A13D38B07B1D010F00303D6
:10038000AED0C3F10403D21ADB071CBF11F8013B46
:1003900000F8013BA4D331F8023B20F8023B9FE771
:1003A000043AD9D3013A11F8013B00F8013BF9D2E4
:1003B0000B7803704B7843708B788370604670477E
:1003C00070B4860746D0541E002A41D0CAB20346F4
:1003D00002E014F1FF343BD303F8012B9D07F8D161
:1003E000032C2ED9CDB245EA05250F2C45EA05454B
:1003F00019D9264603F11002103E0F2E42F8105C68
:1004000042F80C5C42F8085C42F8045C02F110020D
:10041000F2D8A4F1100222F00F0204F00F041032FF
:10042000032C13440DD91E462246043A032A46F8EB
:10043000045BFAD8221F22F003020432134404F0B2
:1004400003042CB1C9B21C4403F8011B9C42FBD12C
:1004500070BC704714460346C2E700BF2DE9F04761
:10046000274C074626688846D6F848419246994662
:10047000002C3CD065681F2D1ADC05F1010E7FB100
:10048000012004EB8503C3F888A0D4F8881100FA92
:1004900005F21143022FC4F88811C3F8089120D047
:1004A0000235C4F804E0002044F82580BDE8F08758
:1004B000144B0BB34FF4C870AFF300800446D8B1AF
:1004C0000020D6F848314FF0010E606023600546E9
:1004D000C6F84841C4F88801C4F88C01002FDFD069
:1004E000CEE7D4F88C311A43C4F88C21D8E706F54E
:1004F000A674C6F84841BDE74FF0FF30BDE8F0876D
:10050000C07000080000000081F0004102E000BF60
:1005100083F0004330B54FEA41044FEA430594EAC3
:10052000050F08BF90EA020F1FBF54EA000C55EAFE
:10053000020C7FEA645C7FEA655C00F0E2804FEACF
:100540005454D4EB5555B8BF6D420CDD2C4480EAB1
:10055000020281EA030382EA000083EA010180EAE1
:10056000020281EA0303362D88BF30BD11F0004F2F
:100570004FEA01314FF4801C4CEA113102D0404265
:1005800061EB410113F0004F4FEA03334CEA1333A0
:1005900002D0524263EB430394EA050F00F0A780B8
:1005A000A4F10104D5F1200E0DDB02FA0EFC22FAB3
:1005B00005F2801841F1000103FA0EF2801843FAA7
:1005C00005F359410EE0A5F120050EF1200E012A98
:1005D00003FA0EFC28BF4CF0020C43FA05F3C018D6
:1005E00051EBE37101F0004507D54FF0000EDCF14F
:1005F000000C7EEB00006EEB0101B1F5801F1BD3F8
:10060000B1F5001F0CD349085FEA30004FEA3C0CFB
:1006100004F101044FEA445212F5800F80F09A80F1
:10062000BCF1004F08BF5FEA500C50F1000041EBF5
:10063000045141EA050130BD5FEA4C0C404141EBF9
:10064000010111F4801FA4F10104E9D191F0000F20
:1006500004BF01460020B1FA81F308BF2033A3F1A3
:100660000B03B3F120020CDA0C3208DD02F1140C9A
:10067000C2F10C0201FA0CF021FA02F10CE002F1D5
:100680001402D8BFC2F1200C01FA02F120FA0CFCCE
:10069000DCBF41EA0C019040E41AA2BF01EB045117
:1006A000294330BD6FEA04041F3C1CDA0C340EDC15
:1006B00004F11404C4F1200220FA04F001FA02F358
:1006C00040EA030021FA04F345EA030130BDC4F116
:1006D0000C04C4F1200220FA02F001FA04F340EA0B
:1006E0000300294630BD21FA04F0294630BD94F0BC
:1006F000000F83F4801306BF81F480110134013DA3
:100700004EE77FEA645C18BF7FEA655C29D094EA13
:10071000050F08BF90EA020F05D054EA000C04BF91
:100720001946104630BD91EA030F1EBF002100207C
:1007300030BD5FEA545C05D14000494128BF41F01B
:10074000004130BD14F580043CBF01F5801130BD7F
:1007500001F0004545F0FE4141F470014FF000000A
:1007600030BD7FEA645C1ABF194610467FEA655CBB
:100770001CBF0B46024650EA013406BF52EA03355D
:1007800091EA030F41F4002130BD00BF90F0000F4B
:1007900004BF0021704730B54FF4806404F1320487
:1007A0004FF000054FF0000150E700BF90F0000F40
:1007B00004BF0021704730B54FF4806404F1320467
:1007C00010F0004548BF40424FF000013EE700BF37
:1007D00042004FEAE2014FEA31014FEA02701FBFC7
:1007E00012F07F4393F07F4F81F06051704792F099
:1007F000000F14BF93F07F4F704730B54FF4607413
:1008000001F0004521F0004120E700BF50EA01025D
:1008100008BF704730B54FF000050AE050EA01020A
:1008200008BF704730B511F0004502D5404261EB7A
:1008300041014FF4806404F132045FEA915C3FF4BB
:10084000DCAE4FF003025FEADC0C18BF03325FEA54
:10085000DC0C18BF033202EBDC02C2F1200300FA09
:1008600003FC20FA02F001FA03FE40EA0E0021FA2E
:1008700002F11444C1E600BF70B54FF0FF0C4CF418
:10088000E06C1CEA11541DBF1CEA135594EA0C0FCE
:1008900095EA0C0F00F0DEF82C4481EA030621EA09
:1008A0004C5123EA4C5350EA013518BF52EA033544
:1008B00041F4801143F4801338D0A0FB02CE4FF0F6
:1008C0000005E1FB02E506F00042E0FB03E54FF026
:1008D0000006E1FB03569CF0000F18BF4EF0010E1E
:1008E000A4F1FF04B6F5007F64F5407404D25FEA1A
:1008F0004E0E6D4146EB060642EAC62141EA5551CD
:100900004FEAC52040EA5E504FEACE2EB4F1FD0C0E
:1009100088BFBCF5E06F1ED8BEF1004F08BF5FEA8C
:10092000500E50F1000041EB045170BD06F000463E
:1009300046EA010140EA020081EA0301B4EB5C04EB
:10094000C2BFD4EB0C0541EA045170BD41F48011E3
:100950004FF0000E013C00F3AB8014F1360FDEBF08
:10096000002001F0004170BDC4F10004203C35DAE4
:100970000C341BDC04F11404C4F1200500FA05F367
:1009800020FA04F001FA05F240EA020001F0004208
:1009900021F0004110EBD37021FA04F642EB06017E
:1009A0005EEA430E08BF20EAD37070BDC4F10C04A8
:1009B000C4F1200500FA04F320FA05F001FA04F26C
:1009C00040EA020001F0004110EBD37041F1000158
:1009D0005EEA430E08BF20EAD37070BDC4F1200563
:1009E00000FA05F24EEA020E20FA04F301FA05F2CB
:1009F00043EA020321FA04F001F0004121FA04F273
:100A000020EA020000EBD3705EEA430E08BF20EA42
:100A1000D37070BD94F0000F0FD101F0004640007C
:100A200041EB010111F4801F08BF013CF7D041EAFE
:100A3000060195F0000F18BF704703F00046520002
:100A400043EB030313F4801F08BF013DF7D043EAD3
:100A50000603704794EA0C0F0CEA135518BF95EA89
:100A60000C0F0CD050EA410618BF52EA4306D1D110
:100A700081EA030101F000414FF0000070BD50EA2F
:100A8000410606BF1046194652EA430619D094EAB9
:100A90000C0F02D150EA013613D195EA0C0F05D1A3
:100AA00052EA03361CBF104619460AD181EA0301F7
:100AB00001F0004141F0FE4141F470014FF00000AF
:100AC00070BD41F0FE4141F4780170BD70B54FF04A
:100AD000FF0C4CF4E06C1CEA11541DBF1CEA1355CA
:100AE00094EA0C0F95EA0C0F00F0A7F8A4EB0504AC
:100AF00081EA030E52EA03354FEA013100F08880A3
:100B00004FEA03334FF0805545EA131343EA12636B
:100B10004FEA022245EA111545EA10654FEA002620
:100B20000EF000419D4208BF964244F1FD0404F5D9
:100B3000407402D25B084FEA3202B61A65EB030535
:100B40005B084FEA32024FF480104FF4002CB6EBF2
:100B5000020E75EB030E22BFB61A754640EA0C0072
:100B60005B084FEA3202B6EB020E75EB030E22BFB2
:100B7000B61A754640EA5C005B084FEA3202B6EBF3
:100B8000020E75EB030E22BFB61A754640EA9C00B2
:100B90005B084FEA3202B6EB020E75EB030E22BF82
:100BA000B61A754640EADC0055EA060E18D04FEA40
:100BB000051545EA16754FEA06164FEAC30343EAE0
:100BC00052734FEAC2025FEA1C1CC0D111F4801FAD
:100BD0000BD141EA00014FF000004FF0004CB6E7A6
:100BE00011F4801F04BF01430020B4F1FD0C88BF45
:100BF000BCF5E06F3FF6AFAEB5EB030C04BFB6EB50
:100C0000020C5FEA500C50F1000041EB045170BD42
:100C10000EF0004E4EEA113114EB5C04C2BFD4EB6F
:100C20000C0541EA045170BD41F480114FF0000EF3
:100C3000013C90E645EA060E8DE60CEA135594EA6F
:100C40000C0F08BF95EA0C0F3FF43BAF94EA0C0F72
:100C50000AD150EA01347FF434AF95EA0C0F7FF4E7
:100C600025AF104619462CE795EA0C0F06D152EA3B
:100C700003353FF4FDAE1046194622E750EA41061F
:100C800018BF52EA43067FF4C5AE50EA41047FF430
:100C90000DAF52EA43057FF4EBAE12E74A0011D2E2
:100CA00012F5001211D20DD56FF47873B3EB6252C6
:100CB0000ED44FEAC12343F0004343EA505323FAD2
:100CC00002F070474FF00000704750EA013002D147
:100CD0004FF0FF3070474FF00000704753B94AB9EA
:100CE000002908BF00281CBF4FF0FF314FF0FF3034
:100CF00000F07AB9ADF1080C6DE904CE00F006F809
:100D0000DDF804E0DDE9022304B070472DE9F04787
:100D10008C460E460446089D002B50D18A42174649
:100D20006CD9B2FA82FEBEF1000F0BD0CEF1200CCE
:100D300001FA0EF620FA0CFC02FA0EF74CEA060C49
:100D400000FA0EF43A0CBCFBF2F9BBB202FB19CC70
:100D500009FB03FA4FEA144848EA0C46B2450AD99F
:100D6000F61909F1FF3180F02581B24540F2228168
:100D7000A9F102093E44A6EB0A06B6FBF2F002FB1B
:100D8000106600FB03F3A4B244EA0644A34209D967
:100D9000E41900F1FF3280F00B81A34240F2088198
:100DA00002383C440021E41A40EA0940002D62D098
:100DB000002324FA0EF42C606B60BDE8F0878B42B0
:100DC00007D9002D55D0002185E841000846BDE82F
:100DD000F087B3FA83F1002940F08F80B34202D349
:100DE000824200F2FC80841A66EB03060120B446BE
:100DF000002D40D085E81010BDE8F08712B901271A
:100E0000B7FBF2F7B7FA87FEBEF1000F35D101212B
:100E1000F61B4FEA174C1FFA87F8B6FBFCF20CFBE7
:100E2000126608FB02F0230C43EA0646B04207D9DB
:100E3000F61902F1FF3302D2B04200F2D2801A4614
:100E4000361AB6FBFCF00CFB106608FB00F8A3B2E8
:100E500043EA0644A04507D9E41900F1FF3302D262
:100E6000A04500F2B9801846A4EB080440EA02400D
:100E70009CE729462846BDE8F08707FA0EF7CEF131
:100E8000200326FA03F24FEA174CB2FBFCF11FFADB
:100E900087F80CFB112206FA0EF620FA03F301FB89
:100EA00008F933431E0C46EA0246B14500FA0EF437
:100EB00009D9F61901F1FF3280F08C80B14540F27A
:100EC000898002393E44A6EB0906B6FBFCF00CFB18
:100ED000106200FB08F99EB246EA0246B14507D906
:100EE000F61900F1FF3371D2B1456FD902383E4493
:100EF000A6EB090640EA01418FE7C1F1200722FA7B
:100F000007F88B4048EA030326FA07F44FEA134E2A
:100F1000B4FBFEF91FFA83FC0EFB19448E4020FA45
:100F200007F809FB0CFA48EA06084FEA184646EAB1
:100F30000444A24502FA01F200FA01F608D9E418C5
:100F400009F1FF3044D2A24542D9A9F102091C445B
:100F5000A4EB0A04B4FBFEF00EFB104400FB0CFCF7
:100F60001FFA88F848EA0444A44507D9E41800F1B8
:100F7000FF3E29D2A44527D902381C4440EA094043
:100F8000A0FB0289A4EB0C0CCC45C246CE4615D37F
:100F900012D055B1B6EB0A036CEB0E0606FA07F752
:100FA000CB401F43CE402F606E600021BDE8F0872C
:100FB0001046F7E68946DEE64645EAD2B8EB020A75
:100FC00069EB030E0138E4E77046D7E718468FE770
:100FD0008146BDE7114676E702383C4444E70846BF
:100FE00006E7023A3E442BE7704700BF00B58BB0DE
:100FF00001AB03AA002102F0F0F930B901A903A85E
:1010000001F04EFA0BB05DF804FB00F05BFCF5E775
:1010100000B58BB001AB03AA012102F0DEF950B993
:1010200001A903A800F0D2F901A903A800F0B8F9BA
:101030000BB05DF804FB00F045FCF1E710B55C4A2D
:1010400000239360D36013755A4A04219160D360E2
:10105000137559494B6101228A61CB614FF46B5082
:1010600048604FF41E60086042F26020C86042F29F
:10107000206088600B610E234B620A624F4802F0C9
:1010800073F800287CD14E4901234B618B6100220B
:10109000CA6142F2A06048604FF41B5008604FF4F0
:1010A0001C50C86042F2207088600A610E224A62B9
:1010B0000B62424802F058F8002864D141490223EB
:1010C0004B6101238B610022CA6142F2201048600B
:1010D00047F2C01008604BF22000C8604CF22000BC
:1010E00088600A610E224A620B62344802F03CF8C2
:1010F00000284BD1314802F0CDF8002849D1022117
:101100002E4802F004FA002846D1002203211320C1
:1011100002F058FB132002F087FB2B4A0023936058
:10112000D3601375294A04219160D360137528494F
:101130000E224A6101238B61CB6148F694704860AE
:101140004CF2F870086047F69474CC6088600B61CC
:101150004A620B621F4802F007F800BB1D4802F00C
:1011600099F8F8B910211B4802F0D1F9E8B900222A
:1011700003213F2002F026FB3F2002F055FB10BD6B
:1011800000F0A0FB7FE700F09DFB97E700F09AFBE3
:10119000B0E700F097FBB2E700F094FBB5E700F092
:1011A00091FBDBE700F08EFBDCE700F08BFBDEE77A
:1011B00094220020C8220020B02100200C2300200F
:1011C00088210020682300203C22002000220020EB
:1011D000382300206822002008B50A4B0A46014641
:1011E000094802F085F8094A136801331360022B9D
:1011F00000DC08BD012001F09DFC0022034B1A60B9
:10120000F7E700BFAC2200200C230020E8220020DA
:1012100008B50A4B0A460146094802F069F8094A2E
:10122000136801331360022B00DC08BD012001F0BC
:1012300081FC0022034B1A60F7E700BF90220020D8
:1012400068220020B022002008B501F06DFC044B9C
:101250001860044A044B1A600022044B1A7008BD3F
:1012600034230020804F1200EC220020382200207E
:1012700008B506484FF4EA7303600223036104498A
:1012800000230B704B70FFF7A7FF08BD94220020CE
:10129000F821002008B507484FF4EA7303600223E1
:1012A00003610549A0230B70BA234B70FFF794FF2D
:1012B00008BD00BF94220020F821002008B538B1F5
:1012C000002803DB062802DCFFF7E4FF08BD08BDA9
:1012D000124B1B68B3F5616F09D3114B1B7873B9BF
:1012E0000F4B1B78002BF1D1FFF7C2FF08BD012285
:1012F0000B4B1A7001F018FC0A4B1860EDE7FFF772
:10130000C9FF01F011FC074B1B68C01A064B1B6894
:101310009842E5D90022024B1A70E1E7BC22002076
:101320003822002034230020EC22002038B50B4C5A
:101330000B4B6360082323610A4B11251D70587005
:101340009970DA70120A1A7100225A719971FF228B
:10135000DA7119462046FFF75BFF38BD00220020F6
:1013600021F2EF18B422002008B50A4A0A4B536054
:1013700008231361094980230B70FF234B70887089
:10138000CB700B714B718B71CB711046FFF740FF27
:1013900008BD00BF0022002021F2EF18B422002077
:1013A0004268084B9A4200D070470A78064B1A7080
:1013B000CA785A700A79487902EB00225A808A79F1
:1013C0001A71F1E7F20FFF185C2200204268094B06
:1013D0009A4200D070470A78074B1A708A785A717F
:1013E000CA78087902EB0022DA804A791A728A797F
:1013F0005A72EFE7F211FF185C22002010B54D4B36
:101400001B7BDBB2062B15D8DFE803F00411321486
:1014100020142C000020FFF7A7FF474B1B78012B5F
:1014200008D0002211460120FFF780FF02E05F2074
:10143000FFF79AFF404B1B78023B092B35D8DFE8BA
:1014400003F03B2C473434543434626E3A4B1B78EF
:10145000052BEFD0032BEDD0002211460420FFF71F
:1014600065FFE7E7002211460B20FFF75FFFE1E78A
:10147000324CA27801210820FFF758FF227A04217C
:101480000820FFF753FF2E4B1A7808210846FFF774
:101490004DFF5F20FFF768FFCCE71022254B1A7045
:1014A000284B1B7ADBB2FF2B00D010BD0022114667
:1014B0000220FFF73BFF10BD224B1B889BB2B3F508
:1014C000FA6FF2D3002211460120FFF72FFF10BD63
:1014D0000022184B1A701B4B1B7ADBB2022BE4D193
:1014E00011460520FFF722FF10BD0822114B1A708C
:1014F000144B1B7ADBB2032BD7D1002211460620F6
:10150000FFF714FF10BD0D4C228801210A20FFF7C0
:101510000DFFA27804210A20FFF708FF10BD054B3C
:101520001B7BDBB2062BC0D0002211460120FFF747
:10153000FDFEBAE7642100205C2200207421002017
:1015400058220020E4210020002307E00022054962
:1015500041F82320044941F823200133632BF5D9B6
:10156000704700BFB82300204825002082B0ADF8A6
:101570000600BDF806309AB2642303FB02F30A4A60
:1015800082FB03121A44DB17C3EB2223074A92FBA8
:10159000F3F3074A916AB3FBF1F3D362D36A5B08B2
:1015A000536302B0704700BFD1000DD000A24A04BF
:1015B000002C014082B0ADF80600BDF806309BB2A9
:1015C000084AA2FB03239B09074A92FBF3F3074A4D
:1015D000916AB3FBF1F3D362D36A5B08D36302B0C1
:1015E000704700BF49B4C2E600A24A0400040040AC
:1015F00082B0ADF80600BDF806309AB24C2303FB6A
:1016000002F30F4A82FB03121A44D917C1EBA2114D
:1016100089B2133189B2002204E08020094B43F8DB
:10162000220001320B468A42F7D305E04FF4000155
:10163000044A42F823100133632BF7D902B07047F4
:10164000B7600BB6B823002082B0ADF80600BDF835
:10165000062092B2013AC2EB02125301104A82FBF9
:1016600003121A44D917C1EBA21189B201F5C8714E
:1016700089B2002205E04FF400700A4B43F82200C3
:1016800001320B468A42F6D305E04FF00071054A5D
:1016900042F823100133B3F57A7FF6D302B07047D6
:1016A00003B57EA5482500202DE9F04188B000242F
:1016B0000494059406940794304B9A6942F0100202
:1016C0009A619A6902F010020092009A9A6942F0B7
:1016D00020029A619A6902F020020192019A9A69A5
:1016E00042F004029A619A6902F004020292029A9C
:1016F0009A6942F008029A619B6903F00803039318
:10170000039B1F4E22464FF40B51304602F0C5FB9F
:101710001C4D22464FF44041284602F0BEFB4FF4D8
:10172000015304930127059706944FF00208CDF862
:101730001C8004A9304602F0B1FA4FF440430493F0
:1017400005970694CDF81C8004A9284602F0A6FA55
:101750004FF420730493059706940323079304A979
:10176000304602F09BFA302304930594069404A9B2
:10177000284602F093FA08B0BDE8F081001002405C
:1017800000100140000C014000B583B01A4B5A69AB
:1017900042F002025A615A6902F002020092009A73
:1017A0005A6942F001025A615B6903F00103019337
:1017B000019B002205210B2002F004F80B2002F00F
:1017C00033F8002205210F2001F0FCFF0F2002F06A
:1017D0002BF8002205213B2001F0F4FF3B2002F012
:1017E00023F8002205213C2001F0ECFF3C2002F010
:1017F0001BF803B05DF804FB0010024008B501F0CF
:101800002BF900F0E5FF00F06FFF012003F038FE38
:10181000F5E7000000B583B004F0E6FE01900A2170
:1018200001A804F0F5FF01F0ABF800F037FF01F07C
:1018300073F8024B187BFFF741FDF0E764210020AD
:1018400010B582B004F0D0FE0190642101A804F02C
:10185000DFFF054C208880B2FFF7ACFE608980B2C4
:10186000FFF784FEF1E700BFE421002000B583B05C
:1018700004F0BAFE0190FA2101A804F0C9FF4FF468
:101880000051074802F00FFB064B988880B2FFF723
:10189000AFFE054B187AFFF7D7FEFFF7AFFDEAE77B
:1018A00000100140E42100207421002008B50268E6
:1018B000034B9A4200D008BD01F02AF9FBE700BFB4
:1018C0000014004072B6FEE708B50D480D4B0360EA
:1018D0000C23436000238360C3604FF480320261B5
:1018E0004FF400124261037643768376C376037722
:1018F000437701F093FB00B908BDFFF7E3FF00BF9A
:10190000682200200068004000B585B000230193E4
:10191000029303931E481F4A02604FF48072826054
:101920000122027303754FF46022C26143600323F6
:10193000036101F0EBFA10BB0B2301930123029327
:101940000723039301A9124801F046F9C8B90523FA
:10195000019302230293042303930DEB03010C482C
:1019600001F03AF978B9062301930323029301A900
:10197000074801F031F940B905B05DF804FBFFF705
:10198000A1FFFFF79FFFFFF79DFFFFF79BFF00BF42
:101990004C3700200024014008B50D480D4B036072
:1019A0000C23436000238360C3604FF480320261E4
:1019B0004FF400124261037643768376C376037751
:1019C000437701F02BFB00B908BDFFF77BFF00BF99
:1019D0000C2300200064004008B50A480A4B03604D
:1019E0004FF4E133436000238360C36003610C2242
:1019F00042618361C36103F055FC00B908BDFFF784
:101A000061FF00BFDC380020004C004008B50A48E8
:101A10000A4B03604FF4E133436000238360C360EB
:101A200003610C2242618361C36103F03BFC00B996
:101A300008BDFFF747FF00BF803700200038014096
:101A400000B58FB000230A930B930C930D9308936A
:101A500009930193029303930493059306930793C9
:101A60001F48204A026041F28832426083604FF48E
:101A70001672C2600361836103F024F930BB0EA9C2
:101A80004FF4805341F8103D154803F06BFAF8B954
:101A9000134803F06DF9E8B900230893099308A9E6
:101AA0000F4803F053FBB8B960230193002302935E
:101AB00003930593082201A9094803F0E0F968B9E6
:101AC000074800F0B1FB0FB05DF804FBFFF7FAFE2A
:101AD000FFF7F8FEFFF7F6FEFFF7F4FEFFF7F2FE62
:101AE000043700200004004010B592B00024109488
:101AF000119409940A940B940C940D940E940F94E1
:101B00002022214601A8FEF75BFC2148214B0360FF
:101B100040F21A43436084604FF6FF73C360046170
:101B20004461846103F024F9002829D10023109333
:101B3000119310A9164803F009FB18BB6023099301
:101B400000220A920B920C920D920E920F9209A90A
:101B50000F4803F094F9B8B900230193029303935B
:101B6000049305934FF400520692089301A9084884
:101B700003F024FB50B9064800F056FB12B010BD2C
:101B8000FFF7A0FEFFF79EFEFFF79CFEFFF79AFE11
:101B900090380020002C014000B58BB00023089342
:101BA0000993019302930393049305930693079378
:101BB0001848194A02606422426083600A22C260A7
:101BC0000361836103F0A9F8D8B90023089309934E
:101BD00008A9104803F0BAFAA8B9002201920292AB
:101BE0000392059201A90B4803F020F968B9042279
:101BF0000DEB0201074803F019F940B90BB05DF88D
:101C000004FBFFF75FFEFFF75DFEFFF75BFEFFF7EC
:101C100059FE00BF2C350020000C004000B58BB0F1
:101C2000002308930993019302930393049305936C
:101C30000693079314484FF0804202600A224260E4
:101C400083604FF41672C2600361836103F065F82C
:101C5000A0B900230893099308A90B4803F076FA6A
:101C600070B90022019202920392059201A90648DE
:101C700003F0DCF830B90BB05DF804FBFFF722FE8F
:101C8000FFF720FEFFF71EFE1C39002000B59DB0B7
:101C9000382200210DEB0200FEF792FB0021099192
:101CA0000A910B910C910D91202201A8FEF788FB5F
:101CB00001220E924FF48033109313920222169257
:101CC00017934FF4E01318930EA802F00BF9E0B944
:101CD0000F23099302210A9100230B934FF4806292
:101CE0000C920D9309A802F0E9FB80B9022301933D
:101CF0004FF40043039301A802F0D8FC48B9012235
:101D0000054B1A601DB05DF804FBFFF7DBFDFFF724
:101D1000D9FDFFF7D7FD00BF7000424208B500F0C3
:101D2000E5FEFFF7B3FFFFF7BFFCFFF72DFDFFF761
:101D3000CBFDFFF7E9FDFFF72FFEFFF74DFEFFF7A5
:101D400065FEFFF77DFEFFF7CFFEFFF725FFFFF7EC
:101D500065FFFFF773F9FFF7F7FBFFF775FA00F080
:101D6000B1FC00F053FE2C4C204602F03DFE2B4D02
:101D700064232A462A492B4801F0C6FD2268D3680D
:101D800043F40073D360284C204602F02DFE6423F8
:101D90002A462649264801F0B7FD2268D36843F455
:101DA0000073D3604FF47A732A462249224801F027
:101DB000ABFD2268D36843F48063D36000211F48E1
:101DC00003F04EF908211E4803F04AF903221D4989
:101DD0001D4800F0DDFF03F095FA1C4A00211C4865
:101DE00003F0D8FA1B4B18601B4A00211B4803F074
:101DF000D1FA1B4B18601B4A00211B4803F0CAFA9A
:101E00001A4B18601A4A00211A4803F0C3FA1A4BF9
:101E1000186003F099FAFEE71C3900201010014009
:101E200074350020E83400202C350020B823002031
:101E3000C0370020482500200838002090380020B6
:101E400004370020BC2200204C37002030710008ED
:101E5000FD170008D8380020E870000815180008A1
:101E60007C370020C47000084118000804380020A6
:101E70000C7100086D1800086439002000B583B0AB
:101E8000114B9A6942F001029A619A6902F00102CB
:101E90000092009ADA6942F08052DA61DB6903F05D
:101EA00080530193019B00220F216FF0010001F08C
:101EB00089FC064A536823F0E06343F000735360E3
:101EC00003B05DF804FB00BF0010024000000140B9
:101ED00030B589B0002304930593069307930268F5
:101EE000264B9A4201D009B030BD044603F56C433D
:101EF0009A6942F400729A619A6902F4007201923E
:101F0000019A9A6942F010029A619A6902F01002ED
:101F10000292029A9A6942F004029A619B6903F064
:101F200004030393039B022304930325059504A94B
:101F3000134801F0B3FE60230493059504A91148EA
:101F400001F0ACFE1048114B036000234360836036
:101F50008022C2604FF4007202614FF4006242615D
:101F600020228261C36101F083FC18B9064B236211
:101F70005C62B8E7FFF7A6FCF8E700BF0024014069
:101F800000100140000801404C38002008000240C9
:101F900030B58BB000230693079308930993036829
:101FA000414A934204D0414A93423AD00BB030BDEB
:101FB0003F4A136801331360012B27D03D4B9A69C8
:101FC00042F004029A619B6903F004030293029BAE
:101FD0000AAC4FF4006344F8103D374D21462846C3
:101FE00001F05CFE4FF48053069302230793032312
:101FF00009932146284601F051FE002205211420B4
:1020000001F0E0FB142001F00FFCCFE7294BDA6967
:1020100042F00072DA61DB6903F000730193019B07
:10202000CCE7244BDA6942F08062DA61DB6903F0C5
:1020300080630393039B1E4A136801331360012BD3
:1020400027D01C4B9A6942F008029A619B6903F001
:1020500008030593059B0AAC4FF4805344F8103DE8
:10206000164D2146284601F019FE4FF40053069301
:1020700002230793032309932146284601F00EFE0D
:1020800000220521412001F09DFB412001F0CCFB05
:102090008CE7084BDA6942F00072DA61DB6903F021
:1020A00000730493049BCCE7006400400068004088
:1020B0005C0400200010024000080140000C0140B8
:1020C0000268094B9A4200D0704782B003F564431E
:1020D0009A6942F400629A619B6903F40063019378
:1020E000019B02B0F0E700BF002C014010B582B0A8
:1020F00004460368B3F1804F04D0384A934228D095
:1021000002B010BD03F50433DA6942F00102DA616E
:10211000DB6903F001030093009B3148314B0360FE
:1021200010234360002383608022C2604FF400725A
:1021300002614FF40062426120228261C36101F0BA
:1021400097FB18B9264B63625C62D9E7FFF7BAFBCD
:10215000F8E7254BDA6942F00802DA61DB6903F03F
:1021600008030193019B2148214B03601023436026
:10217000002383608023C3604FF4007303614FF436
:1021800000634361202383614FF44053C36101F036
:102190006FFBE8B9154B63625C621648164B03602F
:1021A00010234360002383608023C3604FF40073D7
:1021B00003614FF400634361202383614FF4405374
:1021C000C36101F055FB30B90A4BA3625C6297E72B
:1021D000FFF778FBDEE7FFF775FBF5E7000C004043
:1021E000E83400205800024000100240C0370020B0
:1021F0005804024008380020440402400268094B99
:102200009A4200D0704782B003F50333DA6942F096
:102210000202DA61DB6903F002030193019B02B061
:10222000F0E700BF0004004000B587B00023029330
:1022300003930493059303681C4A934205D01C4AF8
:10224000934217D007B05DF804FB1A4B9A6942F02D
:1022500004029A619B6903F004030093009B4FF40E
:102260008073029302230393059302A9124801F09D
:1022700015FDE7E70F4B9A6942F010029A619B69DE
:1022800003F010030193019B4FF480730293022328
:102290000393059302A9094801F000FD084A536819
:1022A00043F0E06343F440635360CBE7002C01400C
:1022B00000040040001002400008014000100140EE
:1022C0000000014010B588B00023049305930693E5
:1022D000079303682D4A934204D02D4A93422BD092
:1022E00008B010BD2B4BDA6942F40022DA61DA69DA
:1022F00002F400220092009A9A6942F010029A6158
:102300009B6903F010030193019B4FF480630493D6
:1023100002230593032307931F4C04A9204601F0D1
:10232000BDFC4FF40063049300230593069304A9B6
:10233000204601F0B3FCD3E7164B9A6942F4804281
:102340009A619A6902F480420292029A9A6942F072
:1023500004029A619B6903F004030393039B4FF407
:102360000073049302230593032307930B4C04A9E2
:10237000204601F093FC4FF48063049300230593FF
:10238000069304A9204601F089FCA9E7004C00400F
:1023900000380140001002400010014000080140D8
:1023A00000B589B000220146372001F00BFA372032
:1023B00001F03AFA154BDA6942F02002DA61DB6982
:1023C00003F020030193019B02A903A802F050F936
:1023D00002F02EF943000E48A0FB03239B0C013BA7
:1023E0000C480D4A026040F2E732C26043600023AD
:1023F0000361836002F066FC18B1012009B05DF84A
:1024000004FB044802F022FBF8E700BF0010024082
:1024100083DE1B436839002000140040FEE7FEE71E
:10242000FEE7FEE7FEE7704708B5024801F0CEFA86
:1024300008BD00BF4C38002008B5024801F0C6FABC
:1024400008BD00BFE834002008B5024801F07CF860
:1024500008BD00BF0C23002008B5024802F032FB83
:1024600008BD00BF6839002008B5024801F0AEFA87
:1024700008BD00BF0838002008B5024801F0A6FAE0
:1024800008BD00BFC037002008B5024801F05CF865
:1024900008BD00BF68220020704700000000000057
:1024A00010B5036840F23512934234D0B3F59B7FE8
:1024B00019D3B3F59C7F00F09F8023D940F23912E5
:1024C000934200F0B98040F28E32934222D10A79D1
:1024D000CB7803EB02239BB2A3F589531F3B9BB23E
:1024E000674A138010BD40F20912934267D040F250
:1024F0001312934272D04F2B40F0BD800A78614B8B
:102500001A7210BDB3F59B7F03D10A785D4B5A72E6
:1025100010BD10BD10BD0C46CB78887800EB0320B1
:10252000B0F5FA6F2EDCFEF741F953A3D3E900238F
:10253000FEF7A2F9FEF7B2FB80B2524B58816278E7
:10254000237803EB02239BB24E4A138023790BB10D
:1025500061795180627912B19BB24A4A9380E279E3
:10256000A37903EB0221B1F5FA6F24DDB1F5FA6F1F
:10257000C0F2818003EB02239BB201339BB2414A3C
:10258000D38010BD40F6B7339842D8DDA0F57F4028
:10259000FF38FEF70BF938A3D3E90023FEF76CF9F7
:1025A00002460B46104603F10041FEF777FB80B26E
:1025B000344B5881C3E78BB2324AD38010BD3248C6
:1025C0004B794370CA78642303FB02F32F4A82FBE2
:1025D0000312DB17C3EB6203037010BD4A780B785C
:1025E00003EB02239BB2274AD381C8788B7803EB95
:1025F00000239BB2138210BD0B78254AD3718878D3
:102600004B7803EB0023234880FB0340DB17C3EB2D
:1026100060131380CB78937008791F4CA4FB0030B3
:102620004009D0704B79A4FB03035B0913718B79CC
:102630001372CB79937110BD0B78154A5374887857
:102640004B7803EB0023134880FB0340DB17C3EBFD
:1026500060135381CB78137308790F4CA4FB0030BF
:10266000400950734B79A4FB03035B0993738B7987
:102670009374CB79137410BD48E17A14AE47FD3FD3
:10268000D8210020E42100205822002095204F0965
:10269000742100201F85EB51A1A0A0A008B5064819
:1026A00040F21313036001230361044B1B780449B8
:1026B0000B70FEF791FD08BD9422002064210020DC
:1026C000F8210020064A002313731370D37053734C
:1026D000044A40F6FF71116053609360704700BF79
:1026E00064210020BC22002008B51021244801F0FC
:1026F000CDFBA0B10122234BDA702021204801F04C
:10270000C5FB204B1B7B03F0FF02EBB1012A21D15B
:1027100098B14FF400411A4801F0BFFB1AE0194A82
:102720000023D3701370184A5372184B5B78052B33
:10273000E3D00022134B1A73DFE700224FF400416D
:102740000F4801F0AAFB05E000224FF400410C48BD
:1027500001F0A3FB0B4B1A7B02F0FF034AB1043BD1
:10276000012B05D801224FF48041054801F095FB6B
:1027700008BD00224FF48041014801F08EFB08BDE6
:10278000000C014064210020E42100205822002098
:1027900010B501FB02F20C4B40F2016119600821F7
:1027A00019610A4940240C7000244C7020248C705C
:1027B000C8700A711012487110148871120ECA7113
:1027C0001846FEF709FD10BD94220020F8210020D4
:1027D00008B54E4B1B7BDBB2062B3DD8DFE803F080
:1027E00004283C3C455A7E00484BDB78DBB2012B89
:1027F00012D0464BDB781BB9454B5B78052B13D0C9
:10280000424BDB78DBB2012B26D1414B5B781BBB03
:1028100001223E4B1A7308BD3D4B5B78052BE8D176
:1028200003223A4B1A73E4E70222384B1A73E7E7A4
:10283000202201214020FFF7ABFF364B5B7ADBB251
:10284000012B0AD0314BDB7813B900222F4B1A73BE
:102850002F4B5B78052B04D008BD04222B4B1A7339
:10286000F0E70322294B1A7308BD202201214020E2
:10287000FFF78EFF274B1B7ADBB2022B02D005221B
:10288000224B1A73214BDB78002BE5D100221F4B22
:102890001A7308BD202200214020FFF779FF202273
:1028A0004FF48C710120FFF773FF01224C210520AA
:1028B000FFF76EFF012265210620FFF769FF134B2A
:1028C000DB7813B90022114B1A73104B5B7BDBB220
:1028D000012BC1D106220D4B1A7308BD2022DC2129
:1028E0000120FFF755FF01223D210520FFF750FF92
:1028F00001224D210620FFF74BFF044B5B7B002B91
:10290000AAD10522014B1A73A6E700BF642100205B
:1029100058220020E421002008B5154B1B889BB2EB
:10292000B3F52F7F1CD8124B1B889BB2013B6FF075
:102930005D0101FB03F10F4BA3FB01236FF0784115
:1029400001EB532120223720FFF722FF0A4B1B887F
:102950009BB242F21072934204D8074B1B8808BD09
:102960000649EFE701220C213820FFF711FF08BDCF
:10297000D8210020B17A83BBE4210020A1FFFF070A
:1029800008B51E4B1B7ADBB2FF2B25D012211C4B46
:102990001B889BB25A1E4B4203FB02F3194A82FB6F
:1029A00003021A44DB17C3EB2223202219443F20E1
:1029B000FFF7EEFE114BDB899BB240F6D1729342DA
:1029C00004D90E4B1B7BDBB2012B07D00E4B5B7B7C
:1029D000DBB2012B06D008BD1421D8E701220A4B37
:1029E0005A73F3E7054BDB899BB240F6B73293424B
:1029F000F1D80022044B5A73EDE700BFE421002018
:102A0000D8210020112940A464210020002304E0E3
:102A10000021034A42F823100133632BF8D9704791
:102A20007435002082B00190002304E04021094A5F
:102A300042F823100133019A9342F7D3019B05E03A
:102A40004FF48001034A42F823100133632BF7D976
:102A500002B070477435002008B5204B1B7BDBB2F9
:102A6000052B39D8DFE803F03538313138031C4BFA
:102A70001B7ADBB2FF2B24D11949CA8992B2A2F288
:102A8000663202EB82021301164880FB03201844D1
:102A9000DB17C3EBE02314338A8891B25A2202FB7E
:102AA00001F2114981FB0201D017C0EB61100A301D
:102AB000834202DAFFF7B6FF08BD1846FFF7B2FF00
:102AC00008BD0020FFF7AEFF08BD3220FFF7AAFFC8
:102AD00008BD0020FFF7A6FF08BD00BF642100204D
:102AE000E421002071E691A26160606008B5074AA8
:102AF000136843F010031360032000F051FE002020
:102B0000FFF74EFCFFF7BAF9002008BD0020024095
:102B1000034A1168034B1B780B441360704700BFD6
:102B2000B039002034040020014B1868704700BF02
:102B3000B039002038B50446FFF7F6FF0546B4F17A
:102B4000FF3F02D0044B1B781C44FFF7EDFF401BF6
:102B50008442FAD838BD00BF34040020704708B55D
:102B6000436A9A6A12F0500F1ED19A6A42F40072B8
:102B70009A621A68926802F46022B2F5602F03D05C
:102B80001846FFF7EBFF08BD1A7B002AF8D19A6AB6
:102B900022F480729A629A6A12F4805FF0D19A6A83
:102BA00042F001029A62EBE71B6A1B6B984708BD73
:102BB000704708B5406AFFF7FBFF08BD704708B5CE
:102BC000406A836A43F040038362C36A43F00403AC
:102BD000C362FFF7F3FF08BD30B482B00023019356
:102BE00090F82430012B00F08B800246012380F8FE
:102BF00024304B68062B29D80568686B03EB8303E8
:102C0000053B1F249C4020EA04000C6804FA03F3EF
:102C100003436B630B68092B38D91568E86803EB2D
:102C200043031E3B07249C4020EA04008C6804FAFE
:102C300003F30343EB600B68103B012B34D90020F6
:102C4000002382F8243002B030BC70470C2B0ED821
:102C50000568286B03EB8303233B1F249C4020EA79
:102C600004000C6804FA03F303432B63D2E70568FE
:102C7000E86A03EB8303413B1F249C4020EA0400E5
:102C80000C6804FA03F30343EB62C3E71568286991
:102C900003EB430307249C4020EA04008C6804FAF9
:102CA00003F303432B61C6E713681648834205D03C
:102CB000936A43F0200393620120C1E7986810F4FF
:102CC000000F1BD1986840F4000098600B68102B2F
:102CD00001D00020B4E70C4B1B680C49A1FB031387
:102CE0009B0C03EB83035900019102E0019B013B24
:102CF0000193019B002BF9D10020A1E700209FE761
:102D00000220A0E7002401403004002083DE1B43A2
:102D100030B583B00023019303689A6812F0010F65
:102D20002ED19A6842F001029A60174B1B68174A2D
:102D3000A2FB03239B0C019302E0019B013B019347
:102D4000019B002BF9D10446FFF7EEFE05462368F0
:102D50009B6813F0010F11D1FFF7E6FE401B02281C
:102D6000F5D9A36A43F01003A362E36A43F00103B9
:102D7000E362002384F82430012002E0002000E018
:102D8000002003B030BD00BF3004002083DE1B43B1
:102D9000F8B50468454DAC420AD005F58065AC42F3
:102DA00006D090F82440012C09D102252846F8BD10
:102DB0003E4B5B6813F4702FF3D00125F6E71746FE
:102DC0000E460446012380F82430FFF7A1FF054694
:102DD000002867D1A36A23F4706323F0010343F44E
:102DE0008073A3622268324B9A423DD0A36A23F4D7
:102DF0008013A362536813F4806F05D0A36A23F491
:102E0000405343F48053A362A36A13F4805F41D01C
:102E1000E36A23F00603E362002384F82430236A84
:102E2000244A9A62236A244ADA62236A234A1A638A
:102E300023686FF002021A602268936843F480737B
:102E4000936021683B4632464C31206A00F084FD95
:102E50002268936803F46023B3F5602F1DD0936854
:102E600043F480139360A1E7A3F580635B6813F4D8
:102E7000702FBBD0A36A43F48013A3620B4B5B6833
:102E800013F4806FC0D0A36A23F4405343F48053FB
:102E9000A362B9E70023E362BEE7936843F4A003AB
:102EA000936083E7002384F824307FE70024014007
:102EB000002801405F2B0008B32B0008BF2B00083F
:102EC00038B503689A6812F0010F01D1002038BDAF
:102ED00004469A6822F001029A60FFF725FE054633
:102EE00023689B6813F0010F0ED0FFF71DFE401BF7
:102EF0000228F5D9A36A43F01003A362E36A43F002
:102F00000103E362012038BD002038BD00287FD0D6
:102F100038B50446836A002B4AD02046FFF7D0FF1D
:102F2000A36A13F010036DD100286BD1A26A22F4BA
:102F3000885222F0020242F00202A2626268E16953
:102F40000A43257B42EA4502A168B1F5807F38D06B
:102F5000012933D0217D012936D02568696821F403
:102F600069410B436B6021688D682A4B2B401343EA
:102F70008B60A368B3F5807F37D0012B35D0002359
:102F80002568E96A21F470010B43EB6223689968B4
:102F9000214B0B409A422CD0A36A23F0120343F03A
:102FA0001003A362E36A43F00103E362012038BD2A
:102FB000C36280F82430FEF78BFFAEE74FF48073D6
:102FC000C8E74FF48073C5E735B9A169013943EA11
:102FD000413343F40063C0E7A16A41F02001A162DC
:102FE000E16A41F00101E162B7E72369013B1B059A
:102FF000C6E70023E362A36A23F0030343F001035F
:10300000A36238BDA36A43F01003A362012038BD58
:1030100001207047FDF7E1FFFE0E1FFF002800F0C2
:10302000A18038B5044690F82030D3B122681368E7
:1030300023F002031360FFF777FD054623685A6803
:1030400012F0020F10D0FFF76FFD401B0A28F5D9D0
:10305000636A43F400336362052384F8203001205F
:1030600038BDFEF795FFE1E71A6842F001021A60E9
:10307000FFF75AFD054623685A6812F0010F0DD17B
:10308000FFF752FD401B0A28F5D9636A43F4003369
:103090006362052384F82030012038BD227E012A96
:1030A0003DD01A6822F080021A60637E012B3BD06B
:1030B0002268136823F040031360A37E012B39D0EC
:1030C0002268136823F020031360E37E012B37D0BE
:1030D0002268136843F010031360237F012B35D05F
:1030E0002268136823F008031360637F012B33D039
:1030F0002268136823F0040313602168A368E26860
:10310000134322691343626913436268013A13430C
:10311000CB6100206062012384F8203038BD1A683A
:1031200042F080021A60C0E72268136843F040034F
:103130001360C2E72268136843F020031360C4E7FA
:103140002268136823F010031360C6E7226813682F
:1031500043F008031360C8E72268136843F00403D0
:103160001360CAE70120704790F82030013BDBB2C2
:10317000012B05D9436A43F4802343620120704741
:1031800070B4434BD3F8002242F00102C3F800228E
:10319000D3F8002222F47C52C3F80022D3F8002294
:1031A000486A42EA0022C3F800224A6902F01F027C
:1031B000012000FA02F2D3F81C42D0430440C3F8C5
:1031C0001C42CB69B3B9324BD3F80C420440C3F86C
:1031D0000C424C69CE688D8845EA0645483443F870
:1031E00034504D698E680C8844EA0644483503EB38
:1031F000C5035C60CB69012B1DD08B69002B32D1DC
:10320000234CD4F804320340C4F804320B698BBB5E
:103210001F4BD3F814422040C3F814020B6A012B51
:103220002FD01B4AD2F8003223F00103C2F800323B
:10323000002070BC7047164BD3F80C421443C3F8FF
:103240000C424C690E688D8845EA0645483443F8BF
:1032500034504D698E688C8944EA0644483503EB46
:10326000C5035C60C9E70A4CD4F804321343C4F8C0
:103270000432CBE70648D0F814321343C0F81432B6
:10328000CCE7034BD3F81C120A43C3F81C22C8E74F
:103290000064004038B590F82030DBB2012B05D037
:1032A000436A43F400234362012038BD04460223ED
:1032B00080F820300268136823F001031360FFF7E1
:1032C00033FC054623685B6813F0010F0DD0FFF750
:1032D0002BFC401B0A28F5D9636A43F40033636270
:1032E000052384F82030012038BD0020606238BDFD
:1032F00070B490F820400568AD68013CE4B2012C40
:1033000006D9436A43F480234362012070BC7047AE
:1033100015F0E05F5BD0C5F30165022D3ED80124B6
:10332000AC401C608B68002B3ED104680E68CB68F3
:1033300043EA465605F118031B01E65003680C6981
:1033400005F1180603EB06135C600B7D012B36D0EC
:103350000468D17993791B0443EA0163517943EA04
:10336000012311790B432E013444C4F88C310168D8
:10337000D47893781B0443EA0463547843EA042323
:10338000127813433144C1F88831026818352D0191
:10339000535943F0010353510020B7E7436A43F404
:1033A000000343620120B1E704684E6843EAC603A4
:1033B000CE68334305F118063601A351BEE7036812
:1033C00003EB0613596841F480715960C0E7436A02
:1033D00043F400134362012098E730B490F8204092
:1033E000013CE4B2012C06D9436A43F480234362D2
:1033F000012030BC704700296FD10468E46814F0E4
:10340000030F64D0056801F11B0424012C5904F05A
:1034100004049460002C6BD1056801F11B042401A5
:103420002C59640D1460056801F11B0424012D5909
:1034300005F00205D560056825446D6805F00F05A7
:103440001561056825446D68C5F307259561056814
:103450002C446468240C546104680A011444D4F8B0
:10346000B8411C7004681444D4F8B841C4F307246C
:103470005C7004681444D4F8B841C4F307449C70E9
:1034800004681444D4F8B841240EDC700468144471
:10349000D4F8BC411C7104681444D4F8BC41C4F392
:1034A00007245C7104681444D4F8BC41C4F3074495
:1034B0009C7104682244D2F8BC21120EDA71F9B969
:1034C0000268D36843F02003D360002091E7436A89
:1034D00043F40013436201208BE70468246914F06D
:1034E000030F8FD1436A43F400134362012080E746
:1034F000056801F11B0424012C59E408546092E78B
:103500000268136943F020031361002071E790F80B
:103510002030013BDBB2012B05D9436A43F4802301
:1035200043620120704702685369194351610020CA
:1035300070477047704770477047704770477047D3
:1035400070477047704770472DE9F84F054603688C
:103550005C695F689E68D3F80C90D3F81080D3F84C
:1035600018A014F0010F5AD016F0010F17D0012245
:103570009A6016F0020F08D116F0040F30D116F041
:10358000080F07D04FF4805B0BE0FFF7D2FF4FF03E
:10359000000B06E0FFF7D0FF4FF0000B01E04FF00B
:1035A000000B16F4807F0BD02B684FF480729A606A
:1035B00016F4007F17D116F4806F18D04BF4005B1F
:1035C00016F4803F2DD02B684FF480329A6016F4A9
:1035D000003F16D116F4802F17D04BF4004B20E09B
:1035E0004FF4006BDDE72846FFF7A4FFE8E716F489
:1035F000006F02D04BF4804BE2E72846FFF79DFFB7
:10360000DEE72846FFF797FF0BE016F4002F02D005
:103610004BF4803B05E02846FFF790FF01E04FF0B8
:10362000000B14F0080F07D019F0100F04D04BF462
:10363000007B2B681022DA6014F0040F02D019F01E
:10364000080F60D114F0020F04D02B68DB6813F070
:10365000030F5FD114F0400F07D018F0100F04D003
:103660004BF4806B2B6810221A6114F0200F02D0EB
:1036700018F0080F52D114F0100F04D02B681B69FA
:1036800013F0030F51D114F4003F02D017F0100FC4
:103690004FD114F4803F02D017F0080F50D114F42A
:1036A000004F67D017F0040F61D014F4807F04D06E
:1036B0001AF0010F01D04BF0010B14F4007F04D07D
:1036C0001AF0020F01D04BF0020B14F4806F04D0FB
:1036D0001AF0040F01D04BF0040B14F4006F46D025
:1036E0001AF0700A43D0BAF1300F48D02FD9BAF18E
:1036F000500F47D0BAF1600F47D0BAF1400F31D127
:103700004BF0400B2EE02B680822DA602846FFF7CA
:1037100016FF97E72846FDF769FC9BE72B68082210
:103720001A612846FFF70CFFA5E72846FDF770FC55
:10373000A9E72B6810225A602846FFF702FFA8E786
:103740002B6808225A602846FFF7FCFEA7E7BAF16B
:10375000100F05D0BAF1200F04D14BF0100B01E08F
:103760004BF0080B2A68936923F0700393612B6870
:1037700004225A60BBF1000F0AD1BDE8F88F4BF06C
:10378000200BEFE74BF0800BECE74BF4807BE9E795
:103790006B6A4BEA03036B622846FFF7D4FEECE743
:1037A000074AD36823F4E0631B041B0C000200F4F7
:1037B000E060184340F0BF6040F40030D0607047D4
:1037C00000ED00E030B4164BDB68C3F30223C3F115
:1037D0000704042C28BF04241D1D062D17D9033B04
:1037E000012505FA04F4013C2140994005FA03F350
:1037F000013B1340194300280BDB0901C9B200F15A
:10380000604000F5614080F8001330BC7047002331
:10381000E6E700F00F000901C9B2024B1954F4E7C2
:1038200000ED00E014ED00E0002808DB420900F0A4
:103830001F00012303FA00F0014B43F822007047F8
:1038400000E100E070B4C56B066C0124B4406C600C
:10385000046863604368102B05D0036899600368AF
:10386000DA6070BC704703689A600368D960F8E753
:1038700000283BD010B4034601681D4A91422AD863
:103880001C4A0A441C49A1FB02121209920002645C
:103890001A4AC263022283F821201868016821F4C1
:1038A0007F5121F030015A689C682243DC68224332
:1038B0001C6922435C6922439C692243DC692243E0
:1038C0000A43026000209863012283F8212083F8D4
:1038D000200010BC70470A4A0A440749A1FB0212A3
:1038E000120992000264074AC263D3E701207047BD
:1038F00007040240F8FFFDBFCDCCCCCC0000024055
:10390000F8FBFDBF0004024070B590F82040012C88
:1039100020D0012480F8204090F82140012C04D0D0
:10392000002380F82030022070BD0446022084F875
:1039300021000025A5632668306820F00100306072
:103940002046FFF77FFF2268136843F001031360EE
:10395000284670BD022070BD38B590F82040012C7B
:1039600032D0012480F8204090F82140012C04D06E
:10397000002380F82030022038BD0446022084F85D
:1039800021000020A0632568286820F0010028603D
:103990002046FFF757FFE36A5BB12268136843F0E4
:1039A0000E0313602268136843F0010313600020C4
:1039B00038BD2268136823F004031360226813687B
:1039C00043F00A031360EDE7022038BD38B5C36B3E
:1039D0001A6804682568016C04238B401A4200F0C1
:1039E000978015F0040F00F09380236813F0200FE8
:1039F00003D1236823F0040323600368A34A93429E
:103A000042D9783A934221D01432934227D01432CB
:103A1000934226D01432934226D01432934226D0B9
:103A20001432934226D002F56772934225D01432A5
:103A3000934224D01432934223D01432934202D0C2
:103A40004FF4802203E04FF4804200E00422904BC8
:103A50005A60C36A002B00F01781984738BD402296
:103A6000F5E74FF48062F2E74FF48042EFE74FF45E
:103A70008022ECE74FF48002E9E70422E7E74022E6
:103A8000E5E74FF48062E2E7824A934224D01432A1
:103A9000934225D01432934224D01432934224D03E
:103AA0001432934224D01432934224D014329342DD
:103AB00024D002F56272934223D01432934222D072
:103AC0001432934221D01432934202D04FF4802218
:103AD00003E04FF4804200E004226F4B5A60B8E7E5
:103AE0004022FAE74FF48062F7E74FF48042F4E7B0
:103AF0004FF48022F1E74FF48002EEE74FF080624E
:103B0000EBE70422E9E74022E7E74FF48062E4E7CD
:103B100002238B401A4200F09C8015F0020F00F047
:103B20009880236813F0200F06D1236823F00A033E
:103B30002360012380F821300368544A934244D91A
:103B4000783A934221D01432934229D014329342CE
:103B500028D01432934228D01432934228D0143201
:103B6000934228D002F56772934227D014329342D1
:103B700026D01432934225D01432934202D04FF40F
:103B8000003203E04FF4005200E00222404B5A6042
:103B9000002380F82030836A002B75D0984738BD09
:103BA0002022F3E74FF40072F0E74FF40052EDE704
:103BB0004FF40032EAE74FF40012E7E70222E5E7AC
:103BC0002022E3E74FF40072E0E7324A934224D028
:103BD0001432934225D01432934224D014329342AB
:103BE00024D01432934224D01432934224D014327D
:103BF000934224D002F56272934223D0143293424E
:103C000022D01432934221D01432934202D04FF486
:103C1000003203E04FF4005200E002221E4B5A60D3
:103C2000B6E72022FAE74FF40072F7E74FF40052AC
:103C3000F4E74FF40032F1E74FF40012EEE74FF0F3
:103C40000072EBE70222E9E72022E7E74FF4007277
:103C5000E4E7082303FA01F10A4215D015F0080F32
:103C600012D0236823F00E032360C16B026C012382
:103C700003FA02F24A60836380F82130002380F85F
:103C80002030036B03B1984738BD00BF800002406D
:103C9000000402400800024000000240F0B583B07A
:103CA0000026344671E0002D00F0A280012D00D1E5
:103CB000CE68FF2B00F2B0808646FF2B00F2AF806B
:103CC000A500DEF800200F27AF4022EA070206FA1F
:103CD00005F52A43CEF800204A6812F0805F53D0E1
:103CE000644A956945F001059561926902F0010207
:103CF0000192019AA508AF1C5F4A52F8272004F0F0
:103D00000307BF004FF00F0E0EFA07FE22EA0E0265
:103D1000DFF874E1704500F089800EF5806E704523
:103D200000F087800EF5806E704500F085800EF5FE
:103D3000806E704577D04FF0040E0EFA07F73A43C5
:103D400002354D4F47F825204A6812F4803F76D05F
:103D50004A4D2A681A432A604A6812F4003F74D018
:103D6000464D6A681A436A604A6812F4801F72D02E
:103D7000424DAA681A43AA604A6812F4001F70D024
:103D80003E4DEA681343EB6001340B6833FA04F2EA
:103D90006DD00122A24013409A42F5D14D68122DF8
:103DA00030D00BD8022D2AD07FF67DAF032D2FD037
:103DB000112D7FF47EAFCE6804367AE7304FBD42D6
:103DC00016D00CD92F4FBD4212D007F58037BD4217
:103DD0000ED0A7F58017BD427FF46BAF08E0A7F5C2
:103DE0008017BD4204D007F58037BD427FF461AF34
:103DF0008D687DB1012D08D04261082659E7CE6853
:103E0000083656E7CE680C3653E70261082650E7BD
:103E100000264EE704264CE700F1040E4DE7A4F11E
:103E20000805AD004DE74FF0030E86E74FF0000E9A
:103E300083E74FF0010E80E74FF0020E7DE70F4D54
:103E40002A6822EA03022A6086E70C4D6A6822EAA1
:103E500003026A6088E7094DAA6822EA0302AA60A1
:103E60008AE7064DEA6822EA0303EB608CE703B0B9
:103E7000F0BD00BF001002400000014000040140FE
:103E80000000211000003110000801408368194231
:103E900001D1002070470120704712B90904016167
:103EA000704701617047C36803EA010221EA030118
:103EB00041EA02410161704782B0084B1B68084A21
:103EC000A2FB03235B0A00FB03F0019000BF019BF0
:103ED0005A1E0192002BF9D102B070473004002025
:103EE000D34D6210002800F0668270B582B004469F
:103EF000036813F0010F3DD0AB4B5B6803F00C037C
:103F0000042B2ED0A84B5B6803F00C03082B23D0A6
:103F1000A368B3F5803F51D0002B55D103F1804306
:103F200003F504331A6822F480321A601A6822F406
:103F300080221A60A368002B60D0FEF7F5FD0546CD
:103F4000994B1B6813F4003F14D1FEF7EDFD401BA5
:103F50006428F5D9032033E2934B5B6813F4803F68
:103F6000D6D0914B1B6813F4003F03D0A368002BFD
:103F700000F02382236813F0020F65D08A4B5B6840
:103F800013F00C0F4ED0884B5B6803F00C03082B2A
:103F900043D06369002B79D00122844B1A60FEF76D
:103FA000C3FD0546804B1B6813F0020F65D1FEF779
:103FB000BBFD401B0228F5D9032001E27A4A1368B1
:103FC00043F480331360B5E7B3F5A02F09D0764BE7
:103FD0001A6822F480321A601A6822F480221A6069
:103FE000A8E703F18043A3F53C331A6842F480222A
:103FF0001A601A6842F480321A609BE7FEF794FD5B
:104000000546694B1B6813F4003FB3D0FEF78CFDE7
:10401000401B6428F5D90320D2E1634B5B6813F49D
:10402000803FB6D1604B1B6813F0020F04D0636968
:10403000012B01D00120C3E15B4A136823F0F80390
:10404000A16943EAC1031360236813F0080F32D05B
:10405000E369002B6ED00122554B1A60FEF764FD18
:104060000546514B5B6A13F0020F21D1FEF75CFD50
:10407000401B0228F5D90320A2E14B4A136823F024
:10408000F803A16943EAC1031360DDE70022474B4F
:104090001A60FEF749FD0546434B1B6813F0020FFB
:1040A000D2D0FEF741FD401B0228F5D9032087E15D
:1040B0000120FFF701FF236813F0040F00F0988040
:1040C000394BDB6913F0805F46D1374BDA6942F038
:1040D0008052DA61DB6903F080530193019B012573
:1040E000344B1B6813F4807F38D02369012B49D0EF
:1040F000002B4DD103F1804303F504331A6A22F0FB
:1041000001021A621A6A22F004021A622369002B61
:104110005CD0FEF709FD0646234B1B6A13F0020F25
:1041200065D1FEF701FD801B41F288339842F3D937
:10413000032045E100221E4B1A60FEF7F5FC054600
:10414000194B5B6A13F0020FB5D0FEF7EDFC401B74
:104150000228F5D9032033E10025C1E7154A136889
:1041600043F480731360FEF7DFFC0646114B1B68B7
:1041700013F4807FB9D1FEF7D7FC801B6428F5D9F2
:1041800003201DE1084A136A43F001031362BDE7EF
:10419000052B11D0044B1A6A22F001021A621A6A26
:1041A00022F004021A62B1E700100240000042420D
:1041B0008004424200700040844B1A6A42F00402BC
:1041C0001A621A6A42F001021A629FE7FEF7ACFC1B
:1041D00006467E4B1B6A13F0020F08D0FEF7A4FCC4
:1041E000801B41F288339842F3D90320E8E035BBC5
:1041F000E36A002B6FD0754A526812F4803F05D0F5
:10420000724A526802F00C02082A1ED0022B23D0F8
:104210006E4AD36A23F48033D36200226C4B1A6057
:10422000FEF782FC0546694B1B6813F0006F52D005
:10423000FEF77AFC401B6428F5D90320C0E0634AEE
:10424000D36923F08053D361D2E7604AD26A12F473
:10425000803FDBD00120B3E05C4B1B6813F0805F34
:1042600008D05A4BDB6A03F0F003626B934201D033
:104270000120A5E00022564B1A60FEF755FC0546CA
:10428000524B1B6813F0006F06D0FEF74DFC401B2D
:104290006428F5D9032093E04C4AD36A23F0F00355
:1042A000616B0B43D362D36A23F47063216B0B43BE
:1042B000D3620122464B1A60FEF736FC0546434B9B
:1042C0001B6813F0006F06D1FEF72EFC401B64281C
:1042D000F5D9032074E0236A002B70D03B4A526862
:1042E00002F00C02082A54D0022B11D00022394BC4
:1042F0001A60FEF719FC0446344B1B6813F0007F6C
:1043000045D0FEF711FC001B0228F5D9032057E029
:104310000022304B1A60FEF707FC05462B4B1B684A
:1043200013F0007F06D0FEF7FFFB401B0228F5D9F3
:10433000032045E0636AB3F5803F1AD023494B68F8
:1043400023F47413626AA06A024313434B60012290
:10435000204B1A60FEF7E8FB04461C4B1B6813F069
:10436000007F12D1FEF7E0FB001B0228F5D90320E5
:1043700026E0164AD36A61680B43D362D36A23F0FE
:104380000F03E1680B43D362D8E7002018E0002058
:1043900016E0012B16D00D4B5B6803F48031626A86
:1043A000914201D001200BE003F47013A26A934202
:1043B0000AD0012004E001207047012000E0002025
:1043C00002B070BD0120FBE70020F9E700100240B9
:1043D00068004242600042422DE9F04389B0334C0C
:1043E00004AD94E80F0007C52B80103494E80F004B
:1043F0008DE80F002E4B5B6803F00C02082A50D1A9
:10440000C3F3834208A90A4412F8104C13F4803F06
:1044100043D02749CB6A03F00F0308AA134413F8CB
:10442000202CCB6A13F4803F31D0CB6AC3F3031343
:104430000133C86AC0F303200230A0FB04677D018A
:10444000700145EAD661801B61EB07014FEA8119D3
:1044500049EA90694FEA8018B8EB000069EB010166
:10446000CD0045EA50754FEAC00E1EEB060045EB45
:1044700007014D0245EAD055460230462946A3FBC6
:104480000223FCF72BFC0D2C0CD140080AE0094854
:1044900000FB04F0B0FBF2F0F5E7074800FB04F086
:1044A00000E0044809B0BDE8F08300BFA070000838
:1044B0000010024000127A0000093D00002800F0C0
:1044C000A38070B50446524B1B6803F007038B4270
:1044D0000CD24F4A136823F007030B431360136891
:1044E00003F00703994201D0012070BD236813F047
:1044F000020F17D013F0040F04D0464A536843F458
:10450000E0635360236813F0080F04D0414A5368F6
:1045100043F4605353603F4A536823F0F003A068AC
:10452000034353600D46236813F0010F31D06368D5
:10453000012B20D0022B25D0364A126812F0020F30
:1045400064D034494A6822F0030213434B60FEF7FB
:10455000EBFA06462F4B5B6803F00C036268B3EB83
:10456000820F16D0FEF7E0FA801B41F288339842A2
:10457000F0D9032070BD274A126812F4003FE0D141
:10458000012070BD234A126812F0007FD9D10120AA
:1045900070BD1F4B1B6803F007039D420CD21C4AE1
:1045A000136823F007032B431360136803F007031A
:1045B0009D4201D0012070BD236813F0040F06D086
:1045C000144A536823F4E063E1680B4353602368A3
:1045D00013F0080F07D00F4A536823F46053216982
:1045E00043EAC1035360FFF7F7FE0A4B5B68C3F36E
:1045F0000313094AD35CD840084B1860084B18686D
:10460000FDF7CEFE002070BD01207047012070BD77
:104610000020024000100240847100083004002095
:1046200038040020014B1868704700BF3004002098
:1046300008B5FFF7F7FF044B5B68C3F30223034A97
:10464000D35CD84008BD00BF001002409471000840
:1046500008B5FFF7E7FF044B5B68C3F3C223034AC7
:10466000D35CD84008BD00BF001002409471000820
:104670000F2303600B4B5A6802F0030242605A6832
:1046800002F0F00282605A6802F4E062C2605B6885
:10469000DB0803F4E0630361034B1B6803F00703CB
:1046A0000B607047001002400020024070B582B0DD
:1046B0000446036813F0010F34D06E4BDB6913F02E
:1046C000805F5CD16B4BDA6942F08052DA61DB6962
:1046D00003F080530193019B0125674B1B6813F482
:1046E000807F4ED0634B1B6A13F4407311D0626815
:1046F00002F4407293420CD05E4A136A23F4407075
:104700005E4901260E6000260E60106213F0010F54
:104710004BD1584A136A23F4407361680B43136208
:10472000002D53D1236813F0020F06D0514A53686D
:1047300023F44043A1680B435360236813F0040F34
:1047400006D04C4AD36A23F40033E1680B43D362AA
:10475000236813F0080F06D0464AD36A23F4802357
:1047600021690B43D362434BDB6A13F4003F32D120
:10477000404BDB6A13F4802F3DD100232CE0002551
:10478000ABE73D4A136843F480731360FEF7CCF93E
:104790000646394B1B6813F4807FA3D1FEF7C4F99A
:1047A000801B6428F5D9032023E0FEF7BDF90646F7
:1047B000304B1B6A13F0020FABD1FEF7B5F9801B2B
:1047C00041F288339842F3D9032012E0D36923F0F1
:1047D0008053D361A6E701237BB9236813F0100F40
:1047E00046D0244A536823F48003E1690B435360A5
:1047F000002002B070BD0123EEE71E4B1B6813F0D2
:10480000805F2CD11B4B1B6813F0806F08D0194BB5
:10481000DB6A03F0F003A269934201D00120E8E7CC
:10482000144AD36A23F0F003A1690B43D362D36A1D
:1048300023F4704361690B43D3620122104B1A6069
:10484000FEF772F905460B4B1B6813F0005FC4D1ED
:10485000FEF76AF9401B6428F5D90320C9E7054B28
:10486000DB6A03F4704362699342B6D00120C0E76B
:104870000020BEE7001002400070004040044242A9
:104880007000424230B4036A23F001030362036AFA
:104890004468826922F073020D682A4323F0020300
:1048A0008D682B430D4DA84209D00C4DA8420DD068
:1048B000446082614A684263036230BC704723F0FF
:1048C0000803CD682B4323F00403EEE724F440747F
:1048D0004D692C438D692C43EAE700BF002C014051
:1048E00030B4036A23F480730362036A4468C269C4
:1048F00022F073020D682A4323F400738D6843EAA3
:1049000005230F4DA84209D00D4DA8420ED044609A
:10491000C2614A68C263036230BC704723F400631B
:10492000CD6843EA052323F48063EDE724F4405483
:104930004D6944EA05148D6944EA0514E7E700BFB0
:10494000002C014030B4036A23F480530362036AED
:104950004468C26922F4E6420D6842EA052223F463
:1049600000538D6843EA0533074DA84206D04460E2
:10497000C2614A680264036230BC704724F4804418
:104980004D6944EA8514F2E7002C014010B4036A33
:10499000046A24F001040462846924F0F00444EA07
:1049A000021223F00A030B438261036210BC7047BA
:1049B00010B4036A23F0100303628469036A24F4C9
:1049C000704444EA023223F0A00343EA01138261F7
:1049D000036210BC7047836823F07003194341F0F1
:1049E000070181607047000090F83D30DBB2012B79
:1049F00001D001207047022380F83D300368124A3D
:104A0000934214D0B3F1804F11D0A2F59432934267
:104A10000DD002F58062934209D002F58062934284
:104A200005D01A6842F001021A60002070479A68A7
:104A300002F00702062A05D01A6842F001021A6045
:104A40000020704700207047002C014090F83D3056
:104A5000DBB2012B01D001207047022380F83D30EA
:104A60000268D36843F00103D3600368124A93429B
:104A700014D0B3F1804F11D0A2F5943293420DD0EF
:104A800002F58062934209D002F58062934205D01C
:104A90001A6842F001021A60002070479A6802F01A
:104AA0000702062A05D01A6842F001021A600020A7
:104AB00070470020704700BF002C014070477047CE
:104AC0007047704710B5044603681A6912F0020F68
:104AD00011D0DA6812F0020F0DD06FF002021A61E5
:104AE0000123037703689B6913F0030F70D0FFF76E
:104AF000E6FF0023237723681A6912F0040F12D00F
:104B0000DA6812F0040F0ED06FF004021A6102236B
:104B1000237723689B6913F4407F5FD02046FFF71B
:104B2000CEFF0023237723681A6912F0080F12D0F2
:104B3000DA6812F0080F0ED06FF008021A61042331
:104B400023772368DB6913F0030F4ED02046FFF76D
:104B5000B6FF0023237723681A6912F0100F12D0D2
:104B6000DA6812F0100F0ED06FF010021A610823ED
:104B700023772368DB6913F4407F3DD02046FFF79D
:104B80009EFF0023237723681A6912F0010F03D0D8
:104B9000DA6812F0010F36D123681A6912F0800F1B
:104BA00003D0DA6812F0800F34D123681A6912F04A
:104BB000400F03D0DA6812F0400F32D123681A692F
:104BC00012F0200F03D0DA6812F0200F30D110BDA0
:104BD000FFF774FF2046FFF773FF8AE72046FFF7D1
:104BE0006DFF2046FFF76CFF9BE72046FFF766FF4F
:104BF0002046FFF765FFACE72046FFF75FFF204642
:104C0000FFF75EFFBDE76FF001021A612046FCF777
:104C10004DFEC1E76FF080021A61204600F0F8FAFD
:104C2000C3E76FF040021A612046FFF74AFFC5E76D
:104C30006FF020021A61204600F0E9FAC7E7000091
:104C400003681F4A90420ED0B0F1804F0BD0A2F5FE
:104C50009432904207D002F58062904203D002F570
:104C60008062904203D123F070034A681343144AD0
:104C700090420ED0B0F1804F0BD0A2F5943290420A
:104C800007D002F58062904203D002F58062904224
:104C900003D123F44073CA68134323F080034A69A5
:104CA000134303608B68C3620B688362044B9842B2
:104CB00002D00123436170470B690363F9E700BF2A
:104CC000002C014038B310B5044690F83D30EBB1EC
:104CD000022384F83D30211D2068FFF7B1FF012336
:104CE00084F8463084F83E3084F83F3084F8403011
:104CF00084F8413084F8423084F8433084F84430FA
:104D000084F8453084F83D30002010BD80F83C30F8
:104D1000FDF774FADCE70120704738B310B504469C
:104D200090F83D30EBB1022384F83D30211D20681E
:104D3000FFF786FF012384F8463084F83E3084F87C
:104D40003F3084F8403084F8413084F8423084F8B1
:104D5000433084F8443084F8453084F83D300020F6
:104D600010BD80F83C30FDF7C1F9DCE70120704749
:104D700038B310B5044690F83D30EBB1022384F807
:104D80003D30211D2068FFF75BFF012384F846308A
:104D900084F83E3084F83F3084F8403084F8413065
:104DA00084F8423084F8433084F8443084F8453045
:104DB00084F83D30002010BD80F83C30FDF780F9CC
:104DC000DCE701207047000030B4036A23F01003D1
:104DD0000362036A4468826922F4E6420D6842EA8B
:104DE000052223F020038D6843EA05130E4DA842E7
:104DF00009D00D4DA8420ED0446082614A6882639A
:104E0000036230BC704723F08003CD6843EA05138A
:104E100023F04003EDE724F440644D6944EA85043F
:104E20008D6944EA8504E7E7002C014090F83C30A6
:104E3000012B22D010B50446012380F83C300C2A07
:104E40000BD8DFE802F0070A0A0A0E0A0A0A120A59
:104E50000A0A16000068FFF715FD002084F83C00E0
:104E600010BD0068FFF7B0FFF7E70068FFF738FDF7
:104E7000F3E70068FFF766FDEFE70220704738B5FB
:104E800090F83C30012B60D00D460446012380F899
:104E90003C300C2A1AD8DFE802F0071919191D193D
:104EA00019193119191944000068FFF7EBFC226841
:104EB000936943F0080393612268936923F0040324
:104EC00093612268936929690B439361002084F8F8
:104ED0003C0038BD0068FFF777FF2268936943F410
:104EE000006393612268936923F48063936122686D
:104EF0009369296943EA01239361E7E70068FFF7B3
:104F0000EFFC2268D36943F00803D3612268D369B8
:104F100023F00403D3612268D36929690B43D36169
:104F2000D4E70068FFF70EFD2268D36943F40063FD
:104F3000D3612268D36923F48063D3612268D36983
:104F4000296943EA0123D361C0E7022038BD10B4C8
:104F5000846824F47F4442EA032319430C438460A9
:104F600010BC704790F83C30012B66D010B5044659
:104F7000012380F83C30022380F83D3002689368BA
:104F800023F47F4323F0770393600B68402B4AD0D0
:104F900013D9602B3DD01ED9702B28D0B3F5005FFC
:104FA00030D1CB684A6889680068FFF7D0FF226873
:104FB000936843F48043936024E0102B06D004D917
:104FC000202B03D0302B01D01CE0DBB91946206820
:104FD000FFF701FD16E0502B14D1CA68496800683C
:104FE000FFF7D4FC50212068FFF7F5FC0AE0CB68FE
:104FF0004A6889680068FFF7AAFF2268936843F04F
:1050000077039360012384F83D30002084F83C004E
:1050100010BDCA6849680068FFF7CAFC60212068B3
:10502000FFF7D9FCEEE7CA6849680068FFF7AEFCF5
:1050300040212068FFF7CFFCE4E70220704710B45E
:1050400001F01F01012303FA01F4036A23EA0403B8
:105050000362036A8A401343036210BC7047000076
:105060000A4689BB90F83E30DBB213F1FF3318BF1C
:105070000123002B64D110B5002A41D1022380F80E
:105080003E301146044601220068FFF7D8FF23682E
:105090002D4A934244D023682B4A934245D0B3F122
:1050A000804F42D0A2F5943293423ED002F5806206
:1050B00093423AD002F58062934236D01A6842F0A9
:1050C00001021A60002010BD042909D008290FD060
:1050D00090F84130DBB213F1FF3318BF0123C8E76A
:1050E00090F83F30DBB213F1FF3318BF0123C0E764
:1050F00090F84030DBB213F1FF3318BF0123B8E75B
:10510000042A05D0082A07D0022380F84130B8E7E6
:10511000022380F83F30B4E7022380F84030B0E744
:105120005A6C42F400425A64B5E79A6802F00702EA
:10513000062A07D01A6842F001021A60002010BD4A
:1051400001207047002010BD002C014090F83C3039
:10515000012B2FD030B4012380F83C30022380F89B
:105160003D3002685368946823F070030D682B4348
:1051700053600368104A93420ED0B3F1804F0BD0B6
:10518000A2F59432934207D002F58062934203D095
:1051900002F58062934204D124F080044A681443EB
:1051A0009C60012380F83D30002380F83C30184695
:1051B00030BC704702207047002C014090F83C3012
:1051C000012B22D0012380F83C30CB6823F44073BC
:1051D0008A68134323F480634A68134323F400630B
:1051E0000A68134323F480530A69134323F40053DA
:1051F0004A69134323F48043CA6913430268536422
:10520000002380F83C3018467047022070477047F2
:105210007047000038B504460268136923F4405310
:10522000C1680B43136183680269134342691343E6
:105230000168CA6822F4B05222F00C021343CB601A
:105240000268536923F4407381690B435361026818
:10525000124B9A421FD0FFF7EBF9216800EB800058
:1052600000EB800063689B00B0FBF3F00C4DA5FBE6
:1052700000325409642202FB140213013233A5FBED
:1052800003235B0903F0F00202EB041203F00F03A7
:1052900013448B6038BDFFF7DBF9DEE700380140CF
:1052A0001F85EB5158B310B5044690F839300BB355
:1052B000242384F839302268D36823F40053D36060
:1052C0002046FFF7A7FF2268136923F49043136178
:1052D0002268536923F02A0353612268D36843F498
:1052E0000053D3600020E063202384F8393084F831
:1052F0003A3010BD80F83830FCF7E4FFD8E70120E1
:1053000070470000EFF305839BB9EFF310839BB95F
:105310000C4B1B68022B05D08BB90122094B1A607C
:1053200000207047EFF31182002AF5D06FF00500DE
:1053300070476FF0050070476FF0050070474FF041
:10534000FF307047BC06002008B5EFF30583B3B902
:10535000EFF31083B3B90E4B1B68022B08D0012B5F
:1053600013D102220A4B1A6001F0E8F8002008BDB0
:10537000EFF31182002AF2D06FF0050008BD6FF044
:10538000050008BD6FF0050008BD4FF0FF3008BDF7
:10539000BC060020F0B587B000240494EFF3058428
:1053A00054BBEFF310833BBB344B1B68022B26D05E
:1053B00010B300238DF81730002A32D016681EB3C0
:1053C000946904B91824631E372B52D8536813F01C
:1053D000010F50D15369D3B14FEA930E95682DB1A7
:1053E000D7685B2F02D9176907B10BBB95B14FF096
:1053F000FF35012D23D075B3049807B0F0BDEFF34E
:105400001183002BF8D1D3E70DF11706D8E74FF041
:10541000800EE3E7D3686BB9136973B14FF0FF35C2
:10542000E7E7002518244FF0800E0DF11706E0E79E
:105430000125DEE74FF0FF35DBE70025D9E71369EB
:1054400092680292019300940B467246314601F035
:1054500009F80490D0E704AA019200940B461FFAC1
:105460008EF2314601F037F80128C5D000230493AD
:10547000C2E70020C1E70020BFE700BFBC06002054
:1054800008B5EFF30583A3B9EFF31083A3B90C4B71
:105490001B68022B02D040B9002008BDEFF3118336
:1054A000002BF8D06FF0050008BD01F007FA0020CE
:1054B00008BD6FF0050008BD6FF0050008BD00BF16
:1054C000BC060020034B0360034B0B60802313607A
:1054D000704700BF6006002060040020034B03609B
:1054E000034B0B604FF4807313607047C00A0020B9
:1054F000C006002000F1080343604FF0FF328260D5
:10550000C360036100230360704700230361704799
:1055100043684B609A688A609A6851609960086134
:10552000036801330360704730B40D68B5F1FF3F85
:1055300002D000F1080202E0026904E01A46536852
:105540001C68A542FAD253684B6099608A6051602A
:10555000086103680133036030BC70470369426827
:10556000816891608268416851605A68904206D0B3
:10557000002202611A68013A1A601868704782684E
:105580005A60F5E782B0002301930D4B1B68B3F11D
:10559000FF3F08D04FF0500383F31188BFF36F8FA4
:1055A000BFF34F8FFEE74FF0500383F31188BFF333
:1055B0006F8FBFF34F8F019B002BFCD002B0704761
:1055C0003C04002006480068006880F3088862B642
:1055D00061B6BFF34F8FBFF36F8F00DF00BF0000D6
:1055E00008ED00E04FF0807340F8043C21F0010129
:1055F00040F8081C034B40F80C3C40F8202C403885
:10560000704700BF85550008000000000000000042
:10561000074B19680868B0E8F00F80F30988BFF3FA
:105620006F8F4FF0000080F311884EF00D0E704721
:105630003C1B00204FF0500383F31188BFF36F8FA2
:10564000BFF34F8F0A4A136801331360012B0DD14A
:10565000084B1B6813F0FF0F08D04FF0500383F383
:105660001188BFF36F8FBFF34F8FFEE7704700BF06
:105670003C04002004ED00E0094B1B6843B94FF0E7
:10568000500383F31188BFF36F8FBFF34F8FFEE793
:10569000013B034A13600BB983F31188704700BFC5
:1056A0003C0400200000000000000000000000009A
:1056B000EFF30980BFF36F8F0D4B1A6820E9F00FED
:1056C00010602DE908404FF0500080F3118801F080
:1056D0001DF94FF0000080F31188BDE808401968FB
:1056E0000868B0E8F00F80F30988BFF36F8F704748
:1056F0003C1B002008B54FF0500383F31188BFF323
:105700006F8FBFF34F8F00F075FF18B14FF08052CD
:10571000024B1A60002383F3118808BD04ED00E0FA
:10572000084A0023136008490B60084B1B680849AE
:10573000A1FB03139B09013B06490B600723136080
:10574000704700BF10E000E018E000E030040020E7
:10575000D34D621014E000E010B582B0274B1A78E8
:10576000D2B20192FF221A701B78DBB28DF803309F
:105770009DF8033003F05003214A13700722214B98
:105780001A6009E01F4A1368013B13609DF803305B
:105790005B00DBB28DF803309DF8033013F0800F0F
:1057A000F0D1184B1B68032B08D04FF0500383F344
:1057B0001188BFF36F8FBFF34F8FFEE71B0203F417
:1057C000E063104A1360019BDBB20C4A13700E4B6E
:1057D0001A6842F470021A601A6842F070421A6045
:1057E000FFF79EFF0024094B1C60FFF7EBFE01F062
:1057F0008DF8FFF7C7FE204602B010BD00E400E0C0
:105800001C0B0020200B002020ED00E03C040020B9
:10581000EFF305830F2B0FD9104A9B5CDBB2104AC4
:105820001278934208D24FF0500383F31188BFF3EC
:105830006F8FBFF34F8FFEE70A4B1B6803F4E063E3
:10584000094A1268934208D94FF0500383F3118834
:10585000BFF36F8FBFF34F8FFEE77047F0E300E0B9
:105860001C0B00200CED00E0200B0020124A12F06F
:10587000070F1ED0D11D21F00701C1F5805313443D
:105880000A460E480260002141601344083B23F0A1
:1058900007030B48036059601960991A516013603F
:1058A000084B1960084B19604FF00042074B1A6013
:1058B00070474FF48053E4E7280B0020341B00208E
:1058C000240B0020301B00202C1B0020281B002054
:1058D00010B4124B1A6882421AD359685C18A0425D
:1058E00003D1406801445960184641684418A242F7
:1058F00012D10B4C2468A2420CD052681144416072
:105900001A6812680260984200D0186010BC704794
:105910001346DFE70460F6E70260F4E7341B00207B
:10592000240B002070B5044600F056FE3A4B1B686D
:10593000BBB13A4B1B681C4263D1ACB1083414F0C4
:10594000070F11D024F00704083404F007035BB1FB
:105950004FF0500383F31188BFF36F8FBFF34F8F66
:10596000FEE7FFF783FFE4E7002C4CD02C4B1B68CD
:105970009C424AD82B4B1D6801E02B4615466A68AD
:10598000944202D92A68002AF7D1234A1268954224
:105990003DD01E6808362A681A606B681B1B102BE6
:1059A00010D9281910F0070F08D04FF0500383F3D7
:1059B0001188BFF36F8FBFF34F8FFEE743606C60BA
:1059C000FFF786FF6A6816490B689B1A0B60164939
:1059D00009688B4201D214490B60104B1B681343BA
:1059E0006B6000232B6000F095FE16F0070F10D0BF
:1059F0004FF0500383F31188BFF36F8FBFF34F8FC6
:105A0000FEE70026EFE70026EDE70026EBE700269D
:105A1000E9E7304670BD00BF240B0020281B0020A2
:105A20002C1B0020341B0020301B002080B338B515
:105A30000446A0F1080550F8042C164909680A42EA
:105A400008D14FF0500383F31188BFF36F8FBFF37A
:105A50004F8FFEE750F8080C40B14FF0500383F32E
:105A60001188BFF36F8FBFF34F8FFEE722EA010269
:105A700044F8042C00F0B0FD54F8041C064A1368E6
:105A80000B4413602846FFF723FF00F043FE38BDA8
:105A9000704700BF281B00202C1B002010B50446B7
:105AA000FFF7C8FDA26BE36B9A4204D00024FFF716
:105AB000E3FD204610BD0124F9E710B50446FFF7C9
:105AC000B9FDA36B23B10024FFF7D6FD204610BD1E
:105AD0000124F9E770B504461646856B026C4AB995
