:020000040800F2
:1080000000000120B9D5000849A200084BA20008D1
:108010004DA200084FA2000851A200080000000075
:1080200000000000000000000000000053A2000853
:1080300055A200080000000057A2000859A200083D
:10804000FDD50008FDD50008FDD50008FDD50008C8
:10805000FDD50008FDD50008FDD50008FDD50008B8
:10806000FDD50008FDD50008FDD5000861A2000877
:10807000FDD50008FDD50008FDD5000871A2000857
:10808000FDD50008FDD50008FDD50008FDD5000888
:1080900081A20008FDD50008FDD50008FDD5000827
:1080A000FDD50008FDD50008FDD50008FDD5000868
:1080B000FDD50008FDD50008FDD50008FDD5000858
:1080C000FDD50008FDD50008FDD50008FDD5000848
:1080D000FDD50008FDD50008FDD50008FDD5000838
:1080E000FDD50008FDD50008FDD500080000000002
:1080F0000000000000000000000000000000000080
:108100000000000000000000FDD50008FDD50008BB
:10811000FDD50008FDD5000891A20008FDD5000896
:10812000FDD50008FDD50008FDD50008A1A2000876
:10813000B1A200080000000000000000FDD500080A
:10814000FDD50008C1A20008FDD50008FDD5000836
:10815000000000000000000000000000000000001F
:10816000000000000000000000000000000000000F
:1081700000000000000000000000000000000000FF
:1081800000000000000000000000000000000000EF
:1081900000000000000000000000000000000000DF
:1081A00000000000000000000000000000000000CF
:1081B00000000000000000000000000000000000BF
:1081C00000000000000000000000000000000000AF
:1081D000000000000000000000000000000000009F
:0481E0005FF8E0F173
:0A81E40056435500000000000000A3
:1081F0000348044B834202D0034B03B11847704736
:108200000C0000200C00002000000000054806497A
:108210000B1AD90F01EBA301491002D0034B03B194
:10822000184770470C0000200C00002000000000E0
:1082300010B5064C237843B9FFF7DAFF044B13B1AE
:108240000448AFF300800123237010BD0C00002010
:108250000000000000D6000808B5044B1BB104491B
:108260000448AFF30080BDE80840CFE700000000FD
:108270001000002000D60008F0B4860746D0541E37
:10828000002A3CD0CAB2034602E014F1FF3436D3D0
:1082900003F8012B9D07F8D1032C29D9CDB245EA6B
:1082A00005250F2C45EA054533D9A4F110063609FA
:1082B00003F1200707EB061703F1100242E904550A
:1082C00042E902551032BA42F8D1721C14F00C0F78
:1082D00003EB021204F00F0613D0331F23F0030345
:1082E0000433134442F8045B9342FBD106F00304C9
:1082F0002CB1C9B21C4403F8011B9C42FBD1F0BC59
:10830000704734461346002CF3D1F8E71446034671
:10831000C2E71A462646E0E781F0004102E000BFCE
:1083200083F0004330B54FEA41044FEA430594EA35
:10833000050F08BF90EA020F1FBF54EA000C55EA70
:10834000020C7FEA645C7FEA655C00F0E2804FEA41
:108350005454D4EB5555B8BF6D420CDD2C4480EA23
:10836000020281EA030382EA000083EA010180EA53
:10837000020281EA0303362D88BF30BD11F0004FA1
:108380004FEA01314FF4801C4CEA113102D04042D7
:1083900061EB410113F0004F4FEA03334CEA133312
:1083A00002D0524263EB430394EA050F00F0A7802A
:1083B000A4F10104D5F1200E0DDB02FA0EFC22FA25
:1083C00005F2801841F1000103FA0EF2801843FA19
:1083D00005F359410EE0A5F120050EF1200E012A0A
:1083E00003FA0EFC28BF4CF0020C43FA05F3C01848
:1083F00051EBE37101F0004507D54FF0000EDCF1C1
:10840000000C7EEB00006EEB0101B1F5801F1BD369
:10841000B1F5001F0CD349085FEA30004FEA3C0C6D
:1084200004F101044FEA445212F5800F80F09A8063
:10843000BCF1004F08BF5FEA500C50F1000041EB67
:10844000045141EA050130BD5FEA4C0C404141EB6B
:108450000101013C28BFB1F5801FE9D291F0000F66
:1084600004BF01460020B1FA81F308BF2033A3F115
:108470000B03B3F120020CDA0C3208DD02F1140C0C
:10848000C2F10C0201FA0CF021FA02F10CE002F147
:108490001402D8BFC2F1200C01FA02F120FA0CFC40
:1084A000DCBF41EA0C019040E41AA2BF01EB045189
:1084B000294330BD6FEA04041F3C1CDA0C340EDC87
:1084C00004F11404C4F1200220FA04F001FA02F3CA
:1084D00040EA030021FA04F345EA030130BDC4F188
:1084E0000C04C4F1200220FA02F001FA04F340EA7D
:1084F0000300294630BD21FA04F0294630BD94F02E
:10850000000F83F4801306BF81F480110134013D14
:108510004EE77FEA645C18BF7FEA655C29D094EA85
:10852000050F08BF90EA020F05D054EA000C04BF03
:108530001946104630BD91EA030F1EBF00210020EE
:1085400030BD5FEA545C05D14000494128BF41F08D
:10855000004130BD14F580043CBF01F5801130BDF1
:1085600001F0004545F0FE4141F470014FF000007C
:1085700030BD7FEA645C1ABF194610467FEA655C2D
:108580001CBF0B46024650EA013406BF52EA0335CF
:1085900091EA030F41F4002130BD00BF90F0000FBD
:1085A00004BF0021704730B54FF4806404F13204F9
:1085B0004FF000054FF0000150E700BF90F0000FB2
:1085C00004BF0021704730B54FF4806404F13204D9
:1085D00010F0004548BF40424FF000013EE700BFA9
:1085E00042004FEAE2014FEA31014FEA02701FBF39
:1085F00012F07F4393F07F4F81F06051704732F06B
:108600007F4208BF704793F07F4F04BF41F40021C1
:10861000704730B54FF4607401F0004521F000411F
:108620001CE700BF50EA010208BF704730B54FF0A9
:1086300000050AE050EA010208BF704730B511F0AA
:10864000004502D5404261EB41014FF4806404F1E2
:1086500032045FEA915C3FF4D8AE4FF003025FEA68
:10866000DC0C18BF03325FEADC0C18BF033202EBEC
:10867000DC02C2F1200300FA03FC20FA02F001FA46
:1086800003FE40EA0E0021FA02F11444BDE600BFE9
:1086900070B54FF0FF0C4CF4E06C1CEA11541DBF98
:1086A0001CEA135594EA0C0F95EA0C0F00F0DEF863
:1086B0002C4481EA030621EA4C5123EA4C5350EA48
:1086C000013518BF52EA033541F4801143F4801399
:1086D00038D0A0FB02CE4FF00005E1FB02E506F02A
:1086E0000042E0FB03E54FF00006E1FB03569CF07F
:1086F000000F18BF4EF0010EA4F1FF04B6F5007F85
:1087000064F5407404D25FEA4E0E6D4146EB0606F6
:1087100042EAC62141EA55514FEAC52040EA5E507F
:108720004FEACE2EB4F1FD0C88BFBCF5E06F1ED829
:10873000BEF1004F08BF5FEA500E50F1000041EB60
:10874000045170BD06F0004646EA010140EA02000D
:1087500081EA0301B4EB5C04C2BFD4EB0C0541EA2F
:10876000045170BD41F480114FF0000E013C00F344
:10877000AB8014F1360FDEBF002001F0004170BD68
:10878000C4F10004203C35DA0C341BDC04F1140481
:10879000C4F1200500FA05F320FA04F001FA05F20D
:1087A00040EA020001F0004221F0004110EBD370DA
:1087B00021FA04F642EB06015EEA430E08BF20EA06
:1087C000D37070BDC4F10C04C4F1200500FA04F3A9
:1087D00020FA05F001FA04F240EA020001F000413B
:1087E00010EBD37041F100015EEA430E08BF20EAAE
:1087F000D37070BDC4F1200500FA05F24EEA020EF6
:1088000020FA04F301FA05F243EA020321FA04F024
:1088100001F0004121FA04F220EA020000EBD370DB
:108820005EEA430E08BF20EAD37070BD94F0000FDB
:108830000FD101F00046400041EB010111F4801F0F
:1088400008BF013CF7D041EA060195F0000F18BFC0
:10885000704703F00046520043EB030313F4801FFC
:1088600008BF013DF7D043EA0603704794EA0C0FB6
:108870000CEA135518BF95EA0C0F0CD050EA4106CC
:1088800018BF52EA4306D1D181EA030101F0004149
:108890004FF0000070BD50EA410606BF1046194671
:1088A00052EA430619D094EA0C0F02D150EA01367D
:1088B00013D195EA0C0F05D152EA03361CBF1046BE
:1088C00019460AD181EA030101F0004141F0FE415D
:1088D00041F470014FF0000070BD41F0FE4141F4E1
:1088E000780170BD70B54FF0FF0C4CF4E06C1CEAE1
:1088F00011541DBF1CEA135594EA0C0F95EA0C0F96
:1089000000F0A7F8A4EB050481EA030E52EA033550
:108910004FEA013100F088804FEA03334FF0805571
:1089200045EA131343EA12634FEA022245EA11159E
:1089300045EA10654FEA00260EF000419D4208BF4F
:10894000964244F1FD0404F5407402D25B084FEAFC
:108950003202B61A65EB03055B084FEA32024FF4A8
:1089600080104FF4002CB6EB020E75EB030E22BF05
:10897000B61A754640EA0C005B084FEA3202B6EBC5
:10898000020E75EB030E22BFB61A754640EA5C0074
:108990005B084FEA3202B6EB020E75EB030E22BF04
:1089A000B61A754640EA9C005B084FEA3202B6EB05
:1089B000020E75EB030E22BFB61A754640EADC00C4
:1089C00055EA060E18D04FEA051545EA16754FEA26
:1089D00006164FEAC30343EA52734FEAC2025FEA44
:1089E0001C1CC0D111F4801F0BD141EA00014FF0D3
:1089F00000004FF0004CB6E711F4801F04BF0143A4
:108A00000020B4F1FD0C88BFBCF5E06F3FF6AFAEBF
:108A1000B5EB030C04BFB6EB020C5FEA500C50F14F
:108A2000000041EB045170BD0EF0004E4EEA1131D2
:108A300014EB5C04C2BFD4EB0C0541EA045170BDD9
:108A400041F480114FF0000E013C90E645EA060E1D
:108A50008DE60CEA135594EA0C0F08BF95EA0C0F4B
:108A60003FF43BAF94EA0C0F0AD150EA01347FF493
:108A700034AF95EA0C0F7FF425AF104619462CE76A
:108A800095EA0C0F06D152EA03353FF4FDAE1046CD
:108A9000194622E750EA410618BF52EA43067FF41E
:108AA000C5AE50EA41047FF40DAF52EA43057FF4AE
:108AB000EBAE12E74A0011D212F5001211D20DD519
:108AC0006FF47873B3EB62520ED44FEAC12343F0D4
:108AD000004343EA505323FA02F070474FF000007E
:108AE000704750EA013002D14FF0FF3070474FF02D
:108AF0000000704753B94AB9002908BF00281CBFBD
:108B00004FF0FF314FF0FF3000F06EB9ADF1080CBF
:108B10006DE904CE00F006F8DDF804E0DDE902239B
:108B200004B070472DE9F047089E0D4604468E4676
:108B3000002B40F083808A42174647D9B2FA82F36D
:108B40004BB1C3F1200105FA03FE20FA01F19F4069
:108B500041EA0E0E9C404FEA1748BEFBF8FC1FFA94
:108B600087F908FB1CE20CFB09F0210C41EA0242E8
:108B700090420AD9BA180CF1FF3180F01881904266
:108B800040F21581ACF1020C3A44121AB2FBF8F033
:108B900008FB102200FB09F1A4B244EA0244A142FE
:108BA00009D93C1900F1FF3280F00381A14240F263
:108BB000008102383C44641A002140EA0C401EB196
:108BC0000022DC40C6E90042BDE8F08702B9FFDEC2
:108BD000B2FA82F3002B4FD18D1A01214FEA124EC7
:108BE0001FFA82F8B5FBFEFC0EFB1C5508FB0CF0CF
:108BF000220C42EA0545A84207D97D190CF1FF3243
:108C000002D2A84200F2E98094462D1AB5FBFEF08C
:108C10000EFB105508FB00F8A4B244EA0544A04539
:108C200007D93C1900F1FF3202D2A04500F2D980E9
:108C30001046A4EB080440EA0C40C0E78B4208D978
:108C4000002E00F0B1800021C6E900050846BDE80D
:108C5000F087B3FA83F100294BD1AB4202D38242B1
:108C600000F2B980841A65EB030301209E46002EB2
:108C7000AAD0C6E9004EA7E79F40C3F12002D14029
:108C80004FEA174EB1FBFEF01FFA87F80EFB1011EA
:108C900024FA02F29D4000FB08FC2A43150C45EA29
:108CA0000145AC4504FA03F409D97D1900F1FF31FF
:108CB00080F08F80AC4540F28C8002383D44A5EBBB
:108CC0000C05B5FBFEF10EFB115C01FB08F995B23A
:108CD00045EA0C45A94507D97D1901F1FF3274D247
:108CE000A94572D902393D44A5EB090541EA004185
:108CF00078E7C1F120078B4022FA07FC4CEA030C0D
:108D000025FA07F44FEA1C4EB4FBFEF91FFA8CF863
:108D10000EFB194420FA07F309FB08FA8D401D43A6
:108D20002B0C43EA0444A24502FA01F200FA01F3D3
:108D300009D91CEB040409F1FF3048D2A24546D9F9
:108D4000A9F102096444A4EB0A04B4FBFEF00EFB93
:108D5000104400FB08FAADB245EA0444A24508D924
:108D60001CEB040400F1FF352DD2A2452BD90238AB
:108D7000644440EA0940A0FB0289A4EB0A044C4584
:108D8000C6464D4619D316D05EB1B3EB0E0264EB66
:108D9000050404FA07F722FA01F31F43CC40C6E9A1
:108DA00000740021BDE8F087314630460CE78C4660
:108DB000EBE61046FFE64345E6D2B8EB020E69EB60
:108DC0000C050138E0E72846D3E711468CE78146D9
:108DD000B9E7084673E7084649E7ACF1020C3D44A1
:108DE00013E702383C4424E7704700BF08B54268E7
:108DF0004FF601739A4200D008BD02F051FEFBE726
:108E000000B58BB001AB03AA002102F013FC70B9CE
:108E100001A903A8FFF7EAFF01A903A801F014FBC9
:108E200001A903A800F0C8FB0BB05DF804FB00F03B
:108E30008BFCEDE700B58BB001AB03AA012102F07A
:108E4000F9FB50B901A903A800F0F2F901A903A8A0
:108E500000F0D8F90BB05DF804FB00F075FCF1E709
:108E60007047000010B56A4A00239360D360137501
:108E7000684A04219160D360137567494B610122F0
:108E80008A61CB614FF46B5048604FF41E600860FC
:108E900042F26020C86042F2206088600B610E23BD
:108EA0004B620A625D4802F089FA002840F0948023
:108EB0005B4904234B6101238B61CB614FF60C00AE
:108EC000486007220A60C8608A6000220A610E2298
:108ED0004A620B62514802F071FA00287FD1514971
:108EE00001234B618B610022CA6142F2A06048609D
:108EF0004FF41B5008604FF41C50C86042F22070C1
:108F000088600A610E224A620B62444802F056FAF7
:108F1000002867D1444902234B6101238B61002261
:108F2000CA6142F22010486047F2C01008604BF25C
:108F30002000C8604CF2200088600A610E224A625C
:108F40000B62364802F03AFA00284ED1334802F05C
:108F5000CDFA00284CD10221304802F00BFC002849
:108F600049D100220321132002F058FD132002F002
:108F700089FD2E4A00239360D36013752C4A042187
:108F80009160D36013752B490E224A6101238B61D6
:108F9000CB6148F6947048604CF2F870086047F670
:108FA0009474CC6088600B614A620B62224802F0C4
:108FB00005FA18BB204802F099FA10BB10211E4890
:108FC00002F0D8FB00BB002203213F2002F026FD67
:108FD0003F2002F057FD10BD00F0B6FB68E700F03F
:108FE000B3FB7CE700F0B0FB94E700F0ADFBADE72E
:108FF00000F0AAFBAFE700F0A7FBB2E700F0A4FB8C
:10900000D8E700F0A1FBD9E700F09EFBDBE700BF4B
:109010006C010020C0010020800000200002002020
:1090200084020020580000205C0200200C01002077
:10903000D00000202C0200203801002008B50A468C
:10904000094B0146094802F07FFA094A13680133C7
:109050001360012B00DC08BD012001F09BFE044BD6
:1090600000221A60F7E700BF840100200002002000
:10907000DC01002008B50A46094B0146094802F008
:1090800063FA094A136801331360012B00DC08BD41
:10909000012001F07FFE044B00221A60F7E700BFB9
:1090A00060010020380100208801002008B501F08F
:1090B0006BFE044B1860044B044A1A60044B0022F8
:1090C0001A7008BD28020020E0010020804F120025
:1090D0000801002008B506484FF4EA730360022334
:1090E0000361044900230B704B70FFF7A7FF08BD15
:1090F0006C010020C800002008B507484FF4EA734F
:109100000360022303610549A0230B70BA234B704F
:10911000FFF794FF08BD00BF6C010020C8000020CD
:1091200008B538B1002804DB431E062B01D8FFF731
:10913000E3FF08BD124B1B68B3F5616F09D3114BF8
:109140001B7873B90F4B1B78002BF2D1FFF7C2FFCE
:10915000EFE70C4B01221A7001F016FE0A4B186063
:10916000EDE7FFF7C9FF01F00FFE074B1B68C01AC0
:10917000064B1B689842E5D9024B00221A70E1E7C2
:10918000940100200801002028020020E0010020B6
:1091900070B505460C460A480A494160082101613C
:1091A000094911260E704D708C70CA70120A0A712E
:1091B0004B718C71FF23CB71FFF75CFF70BD00BF5B
:1091C000D000002021F2EF188C01002008B50A4AD7
:1091D0000A4B536008231361094980230B70FF2356
:1091E0004B708870CB700B714B718B71CB711046CB
:1091F000FFF740FF08BD00BFD000002021F2EF18AC
:109200008C0100204268084B9A4200D070470A78CF
:10921000064B1A70CA785A700A79487902EB002214
:109220005A808A791A71F1E7F20FFF182C01002099
:109230004268094B9A4200D070470A78074B1A706F
:109240008A785A71CA78087902EB0022DA804A7962
:109250001A728A795A72EFE7F211FF182C01002076
:1092600010B5694B1B78013B0B2B0AD8DFE803F0E4
:10927000062515320909460909566470634B002218
:109280009A71624B1B79DBB2062B00F2B980DFE8E2
:1092900003F0636D95AD71B78E000121042001F0DC
:1092A000CFF95B4B1B7ADBB2FF2BEAD100231A46C6
:1092B00019460220FFF76CFFE3E7554B1B889BB272
:1092C000B3F5FA6FDDD300231A4619460120FFF7E4
:1092D0005FFFD6E70021042001F0B2F9002103204E
:1092E00001F0AEF94A4B1B7ADBB2022BC9D1002345
:1092F0001A4619460520FFF74BFFC2E7012103205C
:1093000001F09EF9424B1B7ADBB2032BB9D100234B
:109310001A4619460620FFF73BFFB2E73D4C0023F3
:10932000228801210A20FFF733FF0023A2780421BD
:109330000A20FFF72DFFA4E7344B1B79DBB2062B85
:109340009FD000231A4619460120FFF721FF98E716
:109350002E4B01229A7194E70020FFF737FF00237C
:109360001A4619460120FFF713FF10BD5F20FFF7D3
:109370002DFFFAE7244B1B78DBB2012B06D05AB243
:10938000002AF2D0083BDBB2012BEED8224B9B78AF
:1093900033B100231A4619461020FFF7F9FEE4E71F
:1093A00000231A4619460420FFF7F2FEDDE70023EA
:1093B0001A4619460B20FFF7EBFED6E7154C0023A3
:1093C000A27801210820FFF7E3FE0023227A04217E
:1093D0000820FFF7DDFE00230F4A12780821084617
:1093E000FFF7D6FE5F20FFF7F1FEBEE700231A4627
:1093F00019460120FFF7CCFE5F20FFF7E7FEB4E738
:109400005F20FFF7E3FEB0E72C0100203C000020C6
:10941000B400002044000020280100200023632B1A
:1094200008D80022044941F82320044941F82320A8
:109430000133F4E7704700BFAC0200203C04002079
:1094400082B0ADF80600BDF806309BB2322B19D9B8
:10945000BDF8062092B2642101FB02F10A4A82FBA8
:1094600001320A441112094B00225A62084A92FB47
:10947000F1F2996AB2FBF1F2DA62DA6A52085A63DF
:1094800002B070470021EEE7D1000DD0002C014062
:1094900000A24A0482B0ADF80600BDF806309BB2C7
:1094A000B3F5617F15D9BDF8062092B20A49A1FB38
:1094B00002329109094B00225A62094A92FBF1F2E9
:1094C000996AB2FBF1F2DA62DA6A5208DA6302B040
:1094D00070470021EEE700BF49B4C2E60004004037
:1094E00000A24A0482B0ADF80600BDF806309BB277
:1094F0002E2101FB03F30E4981FB03211944C1F323
:109500008F11133189B200220B4691420BD9094BBE
:10951000802043F822000132F6E7064A4FF40001AA
:1095200042F823100133632BF7D902B0704700BF14
:10953000B7600BB6AC02002082B0ADF80600ADF803
:109540000410BDF804309BB2952B2FD8BDF806301F
:109550009BB25BB3BDF806309BB2642B26D8BDF836
:1095600006309BB25A1E4FF4D77303FB02F3104927
:1095700081FB0321CA18D917C1EBA21189B201F5E9
:10958000E67189B200220B4691420CD9094B4FF487
:10959000007043F822000132F5E7064A4FF00071EF
:1095A00042F823100133B3F57A7FF6D302B0704747
:1095B00003B57EA53C0400204368032B00D0704710
:1095C0004A780B7803EB0223094A1380C8788B781A
:1095D00003EB00235380C8798B791B0403EB0063F2
:1095E000487903EB002309790B445360E7E700BF98
:1095F000640100202DE9F04188B000240494059412
:1096000006940794304B9A6942F010029A619A6965
:1096100002F010020092009A9A6942F020029A61C8
:109620009A6902F020020192019A9A6942F00402BA
:109630009A619A6902F004020292029A9A6942F0CF
:1096400008029A619B6903F008030393039B1F4E72
:1096500022464FF40B51304602F09BFD1C4D224632
:109660004FF44041284602F094FD4FF40153049317
:109670000127059706944FF00208CDF81C8004A935
:10968000304602F06FFC4FF4404304930597069474
:10969000CDF81C8004A9284602F064FC4FF4207326
:1096A0000493059706940323079304A9304602F018
:1096B00059FC302304930594069404A9284602F02B
:1096C00051FC08B0BDE8F0810010024000100140DC
:1096D000000C014000B583B01A4B5A6942F00202F7
:1096E0005A615A6902F002020092009A5A6942F0E5
:1096F00001025A615B6903F001030193019B00229F
:1097000011460B2002F08AF90B2002F0BBF900226F
:1097100011460F2002F082F90F2002F0B3F9002267
:1097200011463B2002F07AF93B2002F0ABF900220F
:1097300011463C2002F072F93C2002F0A3F903B07C
:109740005DF804FB0010024072B6FEE708B50D4854
:109750000D4B03600C23436000238360C3604FF410
:10976000803202614FF400124261037643768376C1
:10977000C3760377437701F07BFD00B908BDFFF79F
:10978000E3FF00BF380100200068004000B585B04D
:1097900000230193029303931E481F4A02604FF473
:1097A000807282600122027303754FF46022C261ED
:1097B00043600323036101F0D7FC10BB0B2301932B
:1097C000012302930723039301A9124801F034FBFC
:1097D000C8B90523019302230293042303930DEBDD
:1097E00003010C4801F028FB78B9062301930323F9
:1097F000029301A9074801F01FFB40B905B05DF8CD
:1098000004FBFFF7A1FFFFF79FFFFFF79DFFFFF7A7
:109810009BFF00BF4C1600200024014008B50D48F6
:109820000D4B03600C23436000238360C3604FF43F
:10983000803202614FF400124261037643768376F0
:10984000C3760377437701F013FD00B908BDFFF736
:109850007BFF00BF000200200064004008B50A48FA
:109860000A4B03604FF4E133436000238360C3601D
:1098700003610C2242618361C36103F06DFE00B994
:1098800008BDFFF761FF00BF18180020004C004022
:1098900008B50A480A4B03604FF4E13343600023E4
:1098A0008360C36003610C2242618361C36103F082
:1098B00053FE00B908BDFFF747FF00BF7C1600202C
:1098C0000038014000B58FB000230A930B930C932E
:1098D0000D930893099301930293039304930593C3
:1098E000069307931E481F4A0260782242608360F5
:1098F0004FF41672C2600361836103F03FFB28BB23
:109900004FF480530A930AA9154803F089FCF8B96B
:10991000134803F08BFBE8B900230893099308A9C7
:109920000F4803F06DFDB8B9602301930023029343
:1099300003930593082201A9094803F0FEFB68B9C7
:10994000074800F0C5FB0FB05DF804FBFFF7FCFE15
:10995000FFF7FAFEFFF7F8FEFFF7F6FEFFF7F4FE5B
:10996000041600200004004010B592B000241094AA
:10997000119409940A940B940C940D940E940F94E2
:109980002022214601A8FEF777FC2148214B0360E5
:10999000F023436084604FF6FF73C3600461446149
:1099A000846103F043FB002829D100231093119315
:1099B00010A9174803F024FD18BB60230993002267
:1099C0000A920B920C920D920E920F9209A91048D6
:1099D00003F0B3FBB8B900230193029303930493FC
:1099E00005934FF400520692089301A9084803F02A
:1099F0003FFD50B9064800F06BFB12B010BDFFF7F9
:109A0000A3FEFFF7A1FEFFF79FFEFFF79DFE00BF3D
:109A1000D0170020002C014000B58BB00023089324
:109A20000993019302930393049305930693079379
:109A30001848194A02606422426083600A22C260A8
:109A40000361836103F0C6FAD8B900230893099330
:109A500008A9104803F0D4FCA8B900220192029290
:109A60000392059201A90B4803F03EFB68B904225A
:109A70000DEB0201074803F037FB40B90BB05DF86E
:109A800004FBFFF761FEFFF75FFEFFF75DFEFFF7E8
:109A90005BFE00BF2C140020000C004000B58BB012
:109AA000002308930993019302930393049305936E
:109AB0000693079314484FF0804202600A224260E6
:109AC00083604FF41672C2600361836103F082FA0F
:109AD000A0B900230893099308A90B4803F090FC50
:109AE00070B90022019202920392059201A90648E0
:109AF00003F0FAFA30B90BB05DF804FBFFF724FE6F
:109B0000FFF722FEFFF720FE5818002000B583B0B3
:109B10000023009301930E480E4A026047224260E0
:109B2000836040F2E732C260836103F027FA50B9E4
:109B30000023009301936946054803F061FC20B9B6
:109B400003B05DF804FBFFF7FFFDFFF7FDFD00BF6D
:109B5000881700200010004010B59CB0282200217A
:109B600012A8FEF789FB002409940A940B940C9424
:109B70000D942022214601A8FEF77EFB09230E93B7
:109B80004FF48033109311940122139215920F9485
:109B90000222169217934FF4E01318930EA802F0C6
:109BA0001DFBD8B90F23099302210A9100230B93BF
:109BB0004FF480620C920D9309A802F0F9FD78B978
:109BC000022301934FF40043039301A802F0CCFE5B
:109BD00040B9054B01221A601CB010BDFFF7B4FD5F
:109BE000FFF7B2FDFFF7B0FD7000424208B501F08B
:109BF000ADF8FFF7B1FFFFF7FDFCFFF76BFDFFF7D7
:109C0000A5FDFFF7C3FDFFF709FEFFF727FEFFF7EE
:109C10003FFEFFF757FEFFF7A7FEFFF7FDFEFFF73A
:109C20003DFFFFF773FFFFF71DF9FFF7F7FBFFF7A6
:109C30003DFA00F03FFD00F0DDFF214803F062F83F
:109C4000204C204603F02CF81F4D64232A461F4960
:109C50001F4801F0AFFF2268D36843F40073D3605C
:109C60001C4C204603F01CF864232A461A491B4862
:109C700001F0A0FF2268D36843F40073D3604FF46F
:109C80007A732A461649174801F094FF2268D36870
:109C900043F48063D3600021134803F03FFB0821A5
:109CA000124803F03BFB03221149124801F09EF9D0
:109CB00001F06AF8104B186000F068FBFCE700BF89
:109CC000881700205818002010100140741400203C
:109CD000DC1300202C140020AC020020BC16002055
:109CE0003C04002000170020D0170020041600209C
:109CF000940100204C1600202800002082B00E4B5A
:109D00009A6942F001029A619A6902F00102009296
:109D1000009ADA6942F08052DA61DB6903F080531D
:109D20000193019B054A536823F0E06343F00073FD
:109D3000536002B0704700BF0010024000000140B5
:109D400030B589B000230493059306930793026806
:109D5000264B9A4201D009B030BD044603F56C434E
:109D60009A6942F400729A619A6902F4007201924F
:109D7000019A9A6942F010029A619A6902F01002FF
:109D80000292029A9A6942F004029A619B6903F076
:109D900004030393039B022304930325059504A95D
:109DA000134802F0DFF860230493059504A91148D5
:109DB00002F0D8F81048114B036000234360836021
:109DC0008022C2604FF4007202614FF4006242616F
:109DD00020228261C36101F0A1FE18B9064B236203
:109DE0005C62B8E7FFF7B0FCF8E700BF0024014071
:109DF0000010014000080140441700200800024004
:109E000030B58BB00023069307930893099303683A
:109E1000424A934204D0424A93423BD00BB030BDF9
:109E2000404A136801331360012B28D03E4B9A69D6
:109E300042F004029A619B6903F004030293029BBF
:109E40004FF400630693002407940894374D06A945
:109E5000284602F087F84FF48053069302230793B5
:109E60000323099306A9284602F07CF822462146DE
:109E7000142001F0D3FD142001F004FECEE72A4B9C
:109E8000DA6942F00072DA61DB6903F00073019372
:109E9000019BCBE7244BDA6942F08062DA61DB692F
:109EA00003F080630393039B1E4A1368013313601E
:109EB000012B28D01C4B9A6942F008029A619B69D9
:109EC00003F008030593059B4FF480530693002489
:109ED00007940894164D06A9284602F043F84FF45B
:109EE00000530693022307930323099306A92846E8
:109EF00002F038F822462146412001F08FFD412032
:109F000001F0C0FD8AE7084BDA6942F00072DA61BD
:109F1000DB6903F000730493049BCBE7006400400B
:109F2000006800402C0000200010024000080140A2
:109F3000000C01400268094B9A4200D0704782B081
:109F400003F564439A6942F400629A619B6903F4E1
:109F500000630193019B02B0704700BF002C0140D9
:109F600010B582B004460368B3F1804F04D0384A7C
:109F7000934228D002B010BD03F50433DA6942F0F1
:109F80000102DA61DB6903F001030093009B3148B1
:109F9000314B036010234360002383608022C26042
:109FA0004FF4007202614FF400624261202282612C
:109FB000C36101F0B3FD18B9264B63625C62D9E757
:109FC000FFF7C2FBF8E7254BDA6942F00802DA61D5
:109FD000DB6903F008030193019B2148214B0360D7
:109FE00010234360002383608023C3604FF4007319
:109FF00003614FF400634361202383614FF44053B6
:10A00000C36101F08BFDE8B9154B63625C621648D1
:10A01000164B036010234360002383608023C360DA
:10A020004FF4007303614FF40063436120238361A5
:10A030004FF44053C36101F071FD30B90A4BA36284
:10A040005C6297E7FFF780FBDEE7FFF77DFBF5E754
:10A05000000C0040DC1300205800024000100240B9
:10A06000BC1600205804024000170020440402409F
:10A0700000B583B00368134A934205D0124A934255
:10A080000DD003B05DF804FB104BDA6942F0020218
:10A09000DA61DB6903F002030093009BF1E70B4BED
:10A0A000DA6942F01002DA61DB6903F01003019310
:10A0B000019B00221146362001F0B0FC362001F051
:10A0C000E1FCDEE700040040001000400010024008
:10A0D00000B587B0002302930393049305930368AC
:10A0E0001C4A934205D01C4A934217D007B05DF832
:10A0F00004FB1A4B9A6942F004029A619B6903F0CF
:10A1000004030093009B4FF4807302930223039394
:10A11000059302A9124801F025FFE7E70F4B9A6962
:10A1200042F010029A619B6903F010030193019BB6
:10A130004FF48073029302230393059302A9094805
:10A1400001F010FF084A536843F0E06343F44063B2
:10A150005360CBE7002C0140000400400010024097
:10A1600000080140001001400000014010B588B017
:10A170000023049305930693079303682D4A9342A3
:10A1800004D02D4A93422BD008B010BD2B4BDA6976
:10A1900042F40022DA61DA6902F400220092009AA5
:10A1A0009A6942F010029A619B6903F010030193CF
:10A1B000019B4FF4806304930223059303230793C9
:10A1C0001F4C04A9204601F0CDFE4FF40063049318
:10A1D00000230593069304A9204601F0C3FED3E7AC
:10A1E000164B9A6942F480429A619A6902F480425D
:10A1F0000292029A9A6942F004029A619B6903F002
:10A2000004030393039B4FF4007304930223059309
:10A21000032307930B4C04A9204601F0A3FE4FF43F
:10A220008063049300230593069304A9204601F05C
:10A2300099FEA9E7004C00400038014000100240A0
:10A240000010014000080140FEE7FEE7FEE7FEE7E0
:10A25000FEE770477047704708B500F089FD08BDFC
:10A2600008B5024801F008FD08BD00BF44170020F2
:10A2700008B5024801F000FD08BD00BFDC13002056
:10A2800008B5024801F092FA08BD00BF00020020A4
:10A2900008B5024802F072FD08BD00BF8817002013
:10A2A00008B5024801F0E8FC08BD00BF0017002017
:10A2B00008B5024801F0E0FC08BD00BFBC16002054
:10A2C00008B5024801F072FA08BD00BF380100204D
:10A2D00070470000234B834200D07047224B1A681E
:10A2E00001321A60214BA3FB02135B094FF4FA7190
:10A2F00001FB132313B91E4B01221A701D4A138848
:10A3000001339BB21380B3F57A7F02D31346002248
:10A310001A80184B1988184BA3FB0123DB0803EBA9
:10A320008303A1EB43039BB213B9144B01221A70B0
:10A33000134AA2FB01325209642303FB121292B2A8
:10A3400012B9104B01221A70084BA3FB01231B0901
:10A35000FA2202FB13139BB2002BBED10A4B01223F
:10A360001A70BAE78817002034000020D34D62101D
:10A370003300002038000020CDCCCCCC31000020B0
:10A380001F85EB51300000203200002010B5254B16
:10A390001B7863B9244B1B78DBB9244B1B7863BB58
:10A3A000234B1B7813B1224B00221A7010BD00F012
:10A3B0001BFA00F047FB00F069F900F00FFB00F01A
:10A3C00091FB1C4B1879FEF7ABFE164B00221A705E
:10A3D000E0E7194C208880B2FFF75CF8608980B212
:10A3E000FFF72EF800F08AF94FF40051134801F0FE
:10A3F000D6FE0D4B00221A70CFE70F4C618989B24F
:10A400000F4B187AFFF798F8A08880B2FFF76AF828
:10A4100000F0B0FBFEF724FF00F012FC034B00221B
:10A420001A70BDE73100002030000020320000200B
:10A43000330000203C000020B40000200010014048
:10A44000440000200000000010B50C460368B3F57E
:10A450009D7F27D2B3F59A7F13D840F20912934219
:10A4600000F08C80B3F5887F03D10A786E4B9A7028
:10A4700006E04F2B04D10A786C4B1A724A781A7393
:10A4800010BDA3F23513042BFAD801A252F823F021
:10A49000C5A4000869A5000881A4000897A50008C4
:10A4A000D9A5000840F28E329342E9D10A79CB78DF
:10A4B00003EB02239BB2A3F589531F3B9BB25C4A7B
:10A4C0001380DDE7CB78887800EB0320B0F5FA6FD6
:10A4D00026DCFEF773F852A3D3E90023FEF7D8F881
:10A4E000FEF7E8FA80B2514B58816278237803EB8B
:10A4F00002239BB24D4A138023790BB161795180BD
:10A50000627912B19BB2494A9380E279A37903EB55
:10A510000221B1F5FA6F1CDC8BB2444AD380AFE75D
:10A5200040F6B7339842E0DDA0F57F40FF38FEF7F4
:10A5300045F83BA3D3E90023FEF7AAF802460B46F1
:10A54000104603F10041FEF7B5FA80B2374B58814F
:10A55000CBE7B1F5FA6F93DB03EB02239BB2013338
:10A560009BB2324AD3808BE70B78304A53724979D9
:10A57000237903EB01239BB2D38181E72A4A4B79EC
:10A580005370C978642303FB01F32A4981FB031349
:10A590005B10137074E74A780B7803EB02232648AC
:10A5A00080FB03235B11254A1380C978A37803EB52
:10A5B000012380FB03135B1193702179A0FB013110
:10A5C0004909D1706379A0FB03135B091371A37967
:10A5D0001372E379937153E74A780B7803EB022304
:10A5E000154880FB03235B11144A5381C978A37873
:10A5F00003EB012380FB03135B1113732179A0FB91
:10A600000131490951736379A0FB03135B0993730B
:10A61000A3799374E379137432E700BFAFF300803A
:10A6200048E17A14AE47FD3F28010020B400002025
:10A63000A800002095204F091F85EB514400002001
:10A6400008B5A1B10E490B78012202FA00F01843B7
:10A65000C0B208700B4840F213130360012303617A
:10A66000074B1B7808490B70FEF7E8FC08BD04494E
:10A670000B78012202FA00F023EA00000870E9E7F3
:10A680003C0000206C010020C800002008B50648EE
:10A6900040F21313036001230361044B1B78044948
:10A6A0000B70FEF7CBFC08BD6C0100203C000020C5
:10A6B000C80000200D4A00231371137053705371AA
:10A6C00093710B4A4FF42F7111800A4A40F6FF71C3
:10A6D000116053609360084A138053801381538143
:10A6E0001382538213835383704700BF3C000020C2
:10A6F000A800002094010020A001002008B510212E
:10A70000254801F03FFD20B3244B01225A7020213F
:10A71000214801F037FD214B1B7903F0FF0233B3D1
:10A72000022A24D050B301224FF400411A4801F00C
:10A7300030FD1A4B1A7902F0FF0332B3043BDBB24F
:10A74000012B28D801224FF48041134801F021FD4C
:10A7500021E0124A002353701370114A5372114BB7
:10A760005B78052BD3D00D4B00221A71CFE7002266
:10A770004FF40041084801F00CFDDAE700224FF4E5
:10A780000041054801F005FDD3E700224FF4804168
:10A79000014801F0FEFC08BD000C01403C00002017
:10A7A000B40000202801002010B501FB02F20C4B80
:10A7B00040F201611960082119610A4940240C70B6
:10A7C00000244C7020248C70C8700A7110124871DB
:10A7D00010148871120ECA711846FEF72FFC10BDB6
:10A7E0006C010020C800002008B5784B1B79DBB253
:10A7F000072B1AD8DFE813F008002E001900E0003C
:10A800004A005F009300AB00704B5B78DBB2012B1A
:10A810000CD06E4B5B781BB96D4B5B78052B0DD064
:10A820006A4B5B78DBB2012B0CD008BD684B5B78C0
:10A83000052BEED1654B03221A71EAE7634B022226
:10A840001A71EDE7624B5B78002BEED15F4B012272
:10A850001A71EAE7202201214020FFF7A5FF5D4B96
:10A860005B7ADBB2012B0DD0584B5B7813B9574B99
:10A8700000221A71564B5B78052BD6D1534B03221D
:10A880001A71D2E7514B04221A71EDE720220121FF
:10A890004020FFF789FF4F4B1B7ADBB2022B02D01F
:10A8A0004A4B05221A71494B5B78002BBDD1474BAF
:10A8B00000221A71B9E7202200214020FFF774FF1F
:10A8C00020224FF48C710120FFF76EFF20224FF4FD
:10A8D000C8710220FFF768FF01224C210520FFF715
:10A8E00063FF012265210620FFF75EFF20220F2172
:10A8F0003320FFF759FF354B5B7813B9334B0022F8
:10A900001A71324B5B7913B1304B06221A712F4BFF
:10A910009B79002B89D02D4B07221A7185E72022C5
:10A92000DC210120FFF740FF01223D210520FFF738
:10A930003BFF01224D210620FFF736FF234B5B79B9
:10A94000002B7FF472AF214B05221A716DE7202294
:10A95000DC210120FFF728FF2022EE210220FFF753
:10A9600023FF01223D210520FFF71EFF01224D217B
:10A970000620FFF719FF174B1B889BB2B3F5FA6F40
:10A9800018D3144B1B889BB2A3F5FA63124A82FBBF
:10A990000312D917C1EB6211023120223320FFF7D5
:10A9A00003FF0A4B9B79002B7FF43FAF074B052237
:10A9B0001A713AE70221F0E7044B5B78002B7FF431
:10A9C00034AF024B00221A712FE700BF3C00002079
:10A9D00028010020B4000020D34D621008B5164BAA
:10A9E0001B889BB240F28A2293421CD8124B1B88D0
:10A9F0009BB2591E6FF0620303FB01F30F4A82FB07
:10AA00000312D917C1EB2221053120223720FFF78D
:10AA1000CBFE0B4B1B889BB242F21072934205D8BF
:10AA2000074B1B8808BD6FF05D01EEE7012218217E
:10AA30003820FFF7B9FEF5E7A800002043DFFA64ED
:10AA4000B400002008B5234B1B7ADBB2FF2B1DD0CE
:10AA50001221214B1B889BB2B3F5C87F18D9202245
:10AA600000213F20FFF7A0FE1A4BDB899BB240F686
:10AA7000D172934204D9174B1B7BDBB2012B1BD045
:10AA8000164B5B79DBB2012B1AD008BD1621E0E72B
:10AA9000114B1B889BB25A1E4B4203FB02F3104A18
:10AAA00082FB03021A44DB17C3EB22232022194442
:10AAB0003F20FFF779FED7E7084B01225A71DFE705
:10AAC000044BDB899BB2B3F57A7FDED2034B0022C5
:10AAD0005A71DAE7B4000020A80000203C000020F2
:10AAE000112940A408B50A4B1B79DBB2072B04D00F
:10AAF000084B1B889BB20F2B04D800210220FFF7C4
:10AB00009FFD08BD01210220FFF79AFDF9E700BF74
:10AB10003C000020A8000020154B5B6A002B1CDBCA
:10AB2000134B5B6A13F0804F19D1114B5B6A13F022
:10AB3000005F16D10E4B5B6A13F0805F13D10C4B94
:10AB40005B6A13F0006F10D1094B5B6A13F0806FE2
:10AB500001D1002070470620704701207047022075
:10AB6000704703207047042070470520704700BFDE
:10AB700000100240F8B51B4E40F213333360082733
:10AB80003761194B1B79194C2370FFF7C5FF6070B3
:10AB9000174D2B89A370FB40E3702B882371FB407A
:10ABA00063712B8BA371FB40E37121463046FEF7A6
:10ABB00045FA4FF44573336037616B882370FB406F
:10ABC00063706B89A370FB40E3706B8A2371FB4059
:10ABD00063716B8BA371FB40E37121463046FEF736
:10ABE0002DFAF8BD6C0100203C000020C8000020B8
:10ABF000A00100200023632B05D8034A002142F85E
:10AC000023100133F7E770477414002082B00190DD
:10AC10000023019A9A4205D9084A402142F823109C
:10AC20000133F6E7019B05E0044A4FF4800142F846
:10AC300023100133632BF7D902B07047741400203E
:10AC400010B52A4B1B79DBB2032B07D8022B35D268
:10AC5000002B47D10020FFF7D9FF43E0053BDBB2D3
:10AC6000022B3FD8224B1B7ADBB2FF2B04D0204BA8
:10AC70001B7ADBB2032B1DD11D4B9B889BB2282B6B
:10AC800005D81C4B9B785F2B12D9642400E0642408
:10AC90006420FFF7BBFF18484FF4A073036008233C
:10ACA000036116490C705F23CB70FEF7C7F919E0FA
:10ACB0000024EDE70020FFF7A9FF13E06420FFF771
:10ACC000A5FF0C4B9B785F2B0DD800230A484FF44F
:10ACD000A07202600822026108490B705F23CB70EA
:10ACE000FEF7ACF910BD2823F0E700BF3C000020C0
:10ACF000B4000020440000206C010020C8000020A7
:10AD000010B504460E4B18784FF47A73B3FBF0F38A
:10AD10000C4A1068B0FBF3F000F0D4FE68B90F2CB9
:10AD200001D901200AE0002221464FF0FF3000F057
:10AD300075FE054B1C60002000E0012010BD00BF27
:10AD400004000020000000200800002008B5074A89
:10AD5000136843F010031360032000F04DFE002041
:10AD6000FFF7CEFFFEF7CAFF002008BD002002401B
:10AD7000034A1168034B1B780B441360704700BFF4
:10AD8000A018002004000020014B1868704700BF85
:10AD9000A018002038B50446FFF7F6FF0546B4F1C9
:10ADA000FF3F02D0044B1B781C44FFF7EDFF401B14
:10ADB000A042FAD338BD00BF04000020704708B598
:10ADC000436A9A6A12F0500F1ED19A6A42F40072D6
:10ADD0009A621A68926802F46022B2F5602F03D07A
:10ADE0001846FFF7EBFF08BD1A7B002AF8D19A6AD4
:10ADF00022F480729A629A6A12F4805FF0D19A6AA1
:10AE000042F001029A62EBE71B6A1B6B9847EAE784
:10AE1000704708B5406AFFF7FBFF08BD704708B5EB
:10AE2000406A836A43F040038362C36A43F00403C9
:10AE3000C362FFF7F3FF08BD30B482B00022019275
:10AE400090F82420012A00F08B800346012280F82C
:10AE500024204A68062A29D80568686B02EB82021A
:10AE6000053A1F24944020EA04000C6804FA02F218
:10AE700002436A630A68092A38D91D68E86802EB48
:10AE800042021E3A0724944020EA04008C6804FA27
:10AE900002F20243EA600A68103A012A34D900201B
:10AEA000002283F8242002B030BC70470C2A0ED850
:10AEB0000568286B02EB8202233A1F24944020EAA3
:10AEC00004000C6804FA02F202432A63D2E7056820
:10AED000E86A02EB8202413A1F24944020EA04000F
:10AEE0000C6804FA02F20243EA62C3E71D682869AB
:10AEF00002EB42020724944020EA04008C6804FA22
:10AF000002F202432A61C6E71A681648824205D057
:10AF10009A6A42F020029A620120C1E7906810F418
:10AF2000000F1BD1906840F4000090600A68102A5E
:10AF300001D00020B4E70C4A12680C49A1FB0212B0
:10AF4000920C02EB82025200019202E0019A013A55
:10AF50000192019A002AF9D10020A1E700209FE781
:10AF60000220A0E7002401400000002083DE1B43F4
:10AF700030B583B00023019303689A6812F0010F83
:10AF80002DD104469A6842F001029A60154B1B6865
:10AF9000154AA2FB03239B0C0193019B1BB1019B50
:10AFA000013B0193F9E7FFF7EFFE054623689B6835
:10AFB00013F0010F11D1FFF7E7FE431B022BF5D968
:10AFC000A36A43F01003A362E36A43F00103E36260
:10AFD000002384F82430012002E0002000E000205B
:10AFE00003B030BD0000002083DE1B43F8B50446EB
:10AFF0000D461646036844498B4259D0434A934252
:10B0000056D094F82430012B7CD0012384F82430CE
:10B010002046FFF7ADFF074600286ED1A36A23F450
:10B02000706323F0010343F48073A3622268374BFB
:10B030009A4244D0A36A23F48013A362536813F4A2
:10B04000806F05D0A36A23F4405343F48053A36276
:10B05000A36A13F4805F48D0E36A23F00603E36237
:10B06000002384F82430236A294A9A62236A294AF1
:10B07000DA62236A284A1A6323686FF002021A60B0
:10B080002268936843F480739360216833462A46AC
:10B090004C31206A00F0B6FD23689A6802F4602201
:10B0A000B2F5602F24D09A6842F480129A6027E0AB
:10B0B000154B5B6813F4702FA3D0012720E0A3F594
:10B0C00080635B6813F4702FB4D0A36A43F48013D9
:10B0D000A3620D4B5B6813F4806FB9D0A36A23F4AD
:10B0E000405343F48053A362B2E70023E362B7E71F
:10B0F0009A6842F4A0029A6002E0002384F82430A7
:10B100003846F8BD0227FBE7002401400028014033
:10B11000BFAD000813AE00081FAE000838B50368C5
:10B120009A6812F0010F01D1002038BD04469A68D8
:10B1300022F001029A60FFF727FE054623689B680C
:10B1400013F0010F0ED0FFF71FFE431B022BF5D9A2
:10B15000A36A43F01003A362E36A43F00103E362CE
:10B160000120E2E70020E0E700287BD070B504462C
:10B17000836A002B4DD02046FFF7D0FFA36A13F05F
:10B18000100369D1002867D1A26A22F4885222F004
:10B19000020242F00202A2626268E1690A43217B74
:10B1A00042EA4102A568B5F5807F02D0012D36D074
:10B1B0001D46267D012E35D02668716821F469412F
:10B1C000294371602568AE68274931401143A96061
:10B1D000A168B1F5807F01D0012902D12369013B2B
:10B1E0001B052568E96A21F470010B43EB622368B3
:10B1F00099681E4B0B409A4225D0A36A23F0120394
:10B2000043F01003A362E36A43F00103E362012009
:10B2100027E0C36280F82430FEF792FDABE74FF4DD
:10B220008075C6E731B9A169013945EA413141F478
:10B230000065C1E7A16A41F02001A162E16A41F025
:10B240000101E162B8E70023E362A36A23F003038C
:10B2500043F00103A36204E0A36A43F01003A36276
:10B26000012070BD01207047FDF7E1FFFE0E1FFFBA
:10B27000002800F0A18038B5044690F82030D3B102
:10B280002268136823F002031360FFF77DFD054673
:10B2900023685A6812F0020F10D0FFF775FD401BAB
:10B2A0000A28F5D9636A43F400336362052384F8FE
:10B2B0002030012038BDFEF7A3FDE1E71A6842F017
:10B2C00001021A60FFF760FD054623685A6812F014
:10B2D000010F0DD1FFF758FD401B0A28F5D9636A0D
:10B2E00043F400336362052384F820300120E1E752
:10B2F000227E012A3DD01A6822F080021A60637E05
:10B30000012B3BD02268136823F040031360A37E17
:10B31000012B39D02268136823F020031360E37EE9
:10B32000012B37D02268136843F010031360237F8A
:10B33000012B35D02268136823F008031360637F64
:10B34000012B33D02268136823F004031360A36831
:10B35000E268134322691343626913436268013A46
:10B3600021681343CB6100206062012384F8203000
:10B37000A0E71A6842F080021A60C0E722681368EA
:10B3800043F040031360C2E72268136843F02003D0
:10B390001360C4E72268136823F010031360C6E744
:10B3A0002268136843F008031360C8E72268136833
:10B3B00043F004031360CAE70120704790F820307F
:10B3C000013BDBB2012B05D9436A43F4802343627E
:10B3D0000120704770B4444BD3F8002242F00102C0
:10B3E000C3F80022D3F8002222F47C52C3F80022D2
:10B3F000D3F80022486A42EA0022C3F800224A69D0
:10B4000002F01F02012000FA02F2D3F81C02D4431A
:10B4100020EA0200C3F81C02CB69B3B9324BD3F85F
:10B420000C022040C3F80C02CE688D88486945EABA
:10B430000645483043F830508E6808884D6940EA28
:10B440000640483503EBC5035860CB69012B1DD07E
:10B450008B69002B32D12448D0F804322340C0F845
:10B4600004320B698BBB204BD3F814020440C3F8A1
:10B4700014420B6A012B2FD01B4AD2F8003223F062
:10B480000103C2F80032002070BC7047164BD3F89D
:10B490000C021043C3F80C020E688D88486945EA17
:10B4A0000645483043F830508E6888894D6940EA37
:10B4B0000640483503EBC5035860C9E70A48D0F891
:10B4C00004321343C0F80432CBE70748D0F81432F3
:10B4D0001343C0F81432CCE70349D1F81C321A43A5
:10B4E000C1F81C22C8E700BF0064004070B50446E4
:10B4F00090F82050EDB2012D06D0436A43F40023AA
:10B5000043620125284670BD022380F8203002687E
:10B51000136823F001031360FFF736FC0646236827
:10B520005B6813F0010F0CD0FFF72EFC831B0A2B76
:10B53000F5D9636A43F400336362052384F820304D
:10B54000E0E700256562DDE770B490F8204005680B
:10B55000AD68013CE4B2012C65D815F0E05F5CD029
:10B56000C5F30164022C05D9436A43F40003436226
:10B5700001205DE00125A5401D608B68002B39D1BD
:10B580000E68CB68056843EA465604F118031B01B0
:10B59000EE5003680D6904F1180603EB06135D60B5
:10B5A0000B7D012B31D0D17993791B0443EA0163E0
:10B5B000517943EA0123157901682B4301EB04110A
:10B5C000C1F88C31D17893781B0443EA0163517838
:10B5D00043EA0123117802680B4302EB0412C2F81C
:10B5E0008831026818342401135943F001031351C0
:10B5F00000201DE04D6843EAC503CD6806682B4373
:10B6000004F118052D017351C3E7036803EB06131A
:10B61000596841F480715960C5E7436A43F40013E7
:10B620004362012004E0436A43F480234362012023
:10B6300070BC704730B490F82040013CE4B2012C5B
:10B6400000F2918051B90468E46814F0030F10D13E
:10B65000436A43F400134362012089E004682469CB
:10B6600014F0030F05D1436A43F400134362012031
:10B670007EE0056801F11B0424012C5904F0040448
:10B680009460002C61D1056801F11B0424012C5940
:10B69000640D1460056801F11B0424012D5905F0A7
:10B6A0000205D560056825446D6805F00F05156134
:10B6B000056825446D68C5F30725956105682C4428
:10B6C0006468240C5461026802EB0112D2F8B821BC
:10B6D0001A70026802EB0112D2F8B821C2F30722F5
:10B6E0005A70026802EB0112D2F8B821C2F3074285
:10B6F0009A70026802EB0112D2F8B821120EDA70C9
:10B70000026802EB0112D2F8BC211A71026802EB46
:10B710000112D2F8BC21C2F307225A71026802EB6F
:10B720000112D2F8BC21C2F307429A71026802EBFF
:10B730000112D2F8BC21120EDA7171B90268D36815
:10B7400043F02003D360002012E0056801F11B04E0
:10B7500024012C59E40854609CE70268136943F003
:10B7600020031361EFE7436A43F48023436201201F
:10B7700030BC704790F82030013BDBB2012B05D97B
:10B78000436A43F48023436201207047026853698F
:10B7900019435161002070477047704770477047E8
:10B7A0007047704770477047704770472DE9F84FF2
:10B7B000054603685C69D3F804809F68D3F80CB031
:10B7C000D3F810A0D3F8189014F001063BD017F06E
:10B7D000010616D001229A6017F0020F08D117F067
:10B7E000040F0CD117F0080606D04FF4805608E07D
:10B7F000FFF7D2FF002604E0FFF7D1FF01E04FF48E
:10B80000006617F4807F0DD02B684FF480729A6029
:10B8100017F4007F40F0868017F4806F00F0868078
:10B8200046F4005617F4803F0DD02B684FF4803259
:10B830009A6017F4003F40F0838017F4802F00F0E7
:10B84000838046F4004614F0080F07D01BF0100F59
:10B8500004D046F400762B681022DA6014F0040F4E
:10B8600002D01BF0080F79D114F0020F04D02B681E
:10B87000DB6813F0030F78D114F0400F07D01AF0F3
:10B88000100F04D046F480662B6810221A6114F061
:10B89000200F02D01AF0080F6BD114F0100F04D053
:10B8A0002B681B6913F0030F6AD114F4003F02D018
:10B8B00018F0100F68D114F4803F02D018F0080F70
:10B8C00069D114F4004F7AD018F0040F74D014F436
:10B8D000807F04D019F0010F01D046F0010614F466
:10B8E000007F04D019F0020F01D046F0020614F4D4
:10B8F000806F04D019F0040F01D046F0040614F450
:10B90000006F59D019F0700956D0B9F1400F65D0C9
:10B9100058D8B9F1200F5ED0B9F1300F42D146F0BE
:10B92000200644E02846FFF738FF7BE717F4006F56
:10B9300002D046F4804675E72846FFF731FF71E7ED
:10B940002846FFF72BFF7EE717F4002F02D046F4BE
:10B95000803678E72846FFF724FF74E72B68082233
:10B96000DA602846FFF71EFF7EE72846FDF748FA13
:10B9700082E72B6808221A612846FFF714FF8CE73C
:10B980002846FDF757FA90E72B6810225A602846A0
:10B99000FFF70AFF8FE72B6808225A602846FFF757
:10B9A00004FF8EE7B9F1100F01D146F008062A68AE
:10B9B000936923F0700393612B6804225A609EB947
:10B9C000BDE8F88FB9F1500F0BD0B9F1600FEED18F
:10B9D00046F48076EBE746F01006E8E746F04006CE
:10B9E000E5E746F08006E2E76B6A1E436E62284692
:10B9F000FDF736FAE4E70000074AD36823F4E06372
:10BA00001B041B0C000200F4E060034343F0BF631F
:10BA100043F40033D360704700ED00E030B4174BBF
:10BA2000DB68C3F30223C3F10704042C28BF0424FA
:10BA30001D1D062D18D9033B4FF0FF3505FA04F400
:10BA400021EA0401994005FA03F322EA03031943AA
:10BA500000280BDB0901C9B200F1604000F561402C
:10BA600080F8001330BC70470023E5E700F00F00BA
:10BA70000901C9B2024B1954F4E700BF00ED00E020
:10BA800014ED00E0002807DB00F01F02400901234D
:10BA90009340024A42F82030704700BF00E100E0C6
:10BAA000BFF34F8F0549CA6802F4E062044B1343A9
:10BAB000CB60BFF34F8F00BFFDE700BF00ED00E09C
:10BAC0000400FA050138B0F1807F0AD2064B5860B5
:10BAD000064AF02182F823100020986007221A609D
:10BAE00070470120704700BF10E000E000ED00E06B
:10BAF00070B4066CC56B0124B4406C60046863606C
:10BB00004368102B05D0036899600368DA6070BC45
:10BB1000704703689A600368D960F8E700283AD054
:10BB200010B4024600681D4B984229D81C4B0344B0
:10BB30001C49A1FB03131B099B0013641A4BD3631D
:10BB4000022382F82130016821F47F5121F0300175
:10BB5000536894682343D468234314692343546986
:10BB6000234394692343D46923430B430360002098
:10BB70009063012382F8213082F8200010BC7047C6
:10BB80000A4B03440749A1FB03131B099B001364E1
:10BB9000074BD363D4E70120704700BF070402407E
:10BBA000F8FFFDBFCDCCCCCC00000240F8FBFDBFC0
:10BBB0000004024070B5044690F8200001281FD010
:10BBC000012084F8200094F82100012804D00023EB
:10BBD00084F82030022070BD022084F82100002566
:10BBE000A5632668306820F0010030602046FFF72A
:10BBF0007FFF2268136843F0010313602846EAE7D9
:10BC00000220E8E738B5044690F82000012831D03A
:10BC1000012084F8200094F82100012804D000239A
:10BC200084F82030022038BD022084F82100002052
:10BC3000A0632568286820F0010028602046FFF7EF
:10BC400057FFE36A5BB12268136843F00E03136089
:10BC50002268136843F0010313600020E3E72268C1
:10BC6000136823F0040313602268136843F00A0387
:10BC70001360EDE70220D6E738B5C36B1A68046895
:10BC80002568016C04238B40134200F09B8015F063
:10BC9000040F00F09780236813F0200F03D123686E
:10BCA00023F0040323600368AA4A934246D9783AF2
:10BCB000934224D01432934228D01432934227D096
:10BCC0001432934227D01432934227D01432934235
:10BCD00027D01432934227D002F56272934226D0C5
:10BCE0001432934225D01432934224D0143293421A
:10BCF00002D04FF4802203E04FF4804200E004229F
:10BD0000954B5A60C36A03B1984738BD4022F7E7A4
:10BD10004FF48062F4E74FF48042F1E74FF4802261
:10BD2000EEE74FF48002EBE74FF08062E8E7042291
:10BD3000E6E74022E4E74FF48062E1E7874A934276
:10BD400024D01432934225D01432934224D014329A
:10BD5000934224D01432934224D01432934224D0FC
:10BD60001432934224D002F56272934223D01432EB
:10BD7000934222D01432934221D01432934202D003
:10BD80004FF4802203E04FF4804200E00422744B21
:10BD90005A60B7E74022FAE74FF48062F7E74FF4C2
:10BDA0008042F4E74FF48022F1E74FF48002EEE79F
:10BDB0004FF08062EBE70422E9E74022E7E74FF427
:10BDC0008062E4E702238B40134200F0A38015F069
:10BDD000020F00F09F80236813F0200F06D1236824
:10BDE00023F00A032360012380F821300368594AB5
:10BDF00093424BD9783A934224D0143293422DD0B7
:10BE0000143293422CD0143293422CD014329342E9
:10BE10002CD0143293422CD0143293422CD002F501
:10BE2000627293422BD0143293422AD0143293423E
:10BE300029D01432934202D04FF4003203E04FF481
:10BE4000005200E00222444B5A60002380F8203068
:10BE5000836A002B3FF459AF984756E72022F2E758
:10BE60004FF40072EFE74FF40052ECE74FF400326A
:10BE7000E9E74FF40012E6E74FF00072E3E7022231
:10BE8000E1E72022DFE74FF40072DCE7334A934218
:10BE900024D01432934225D01432934224D0143249
:10BEA000934224D01432934224D01432934224D0AB
:10BEB0001432934224D002F56272934223D014329A
:10BEC000934222D01432934221D01432934202D0B2
:10BED0004FF4003203E04FF4005200E00222204B06
:10BEE0005A60B2E72022FAE74FF40072F7E74FF406
:10BEF0000052F4E74FF40032F1E74FF40012EEE79E
:10BF00004FF00072EBE70222E9E72022E7E74FF467
:10BF10000072E4E7082303FA01F111423FF4F5AEA1
:10BF200015F0080F3FF4F1AE236823F00E032360F1
:10BF3000026CC16B012303FA02F24A60836380F84A
:10BF40002130002380F82030036B002B3FF4DDAE5E
:10BF50009847DAE6800002400004024008000240F0
:10BF600000000240F0B482B000252C46A3E07F4FD1
:10BF7000BB4210D007D97E4FBB420CD007F58037AB
:10BF8000BB4208D013E0A7F58017BB4203D007F5EA
:10BF90007027BB4207D18B68002B58D0012B51D0A2
:10BFA0004261082503E0A7F58017BB42F3D0FF2EBE
:10BFB0004FD88446FF2E4FD8A200DCF800300F2760
:10BFC000974023EA070305FA02F21343CCF8003046
:10BFD0004B6813F0805F6DD0664B9A6942F00102A6
:10BFE0009A619B6903F001030193019BA208971CCE
:10BFF000614B53F8273004F00307BF004FF00F0CDC
:10C000000CFA07FC23EA0C0C5C4B98422AD003F58F
:10C010008063984200F08A8003F58063984200F0C4
:10C02000878003F5806398421AD004231BE0CD6813
:10C03000BDE7CD680435BAE7CD680835B7E7CD6808
:10C040000C35B4E702610825B1E70025AFE7042508
:10C05000ADE700F1040CADE7A4F108029200ACE7F3
:10C06000032300E00023BB4043EA0C030232424FAB
:10C0700047F822304B6813F4803F5BD0404A136886
:10C08000334313604B6813F4003F59D03C4A536864
:10C09000334353604B6813F4801F57D0384A93687A
:10C0A000334393604B6813F4001F55D0344AD36870
:10C0B0001E43D66001340B6833FA04F252D00122D9
:10C0C000A24003EA020632EA0303F3D14B68122BC3
:10C0D0003FF64DAF122B3FF66AAF01A757F823F09A
:10C0E00097BF00082FC0000839C000084BC00008E7
:10C0F000AFBF0008AFBF0008AFBF0008AFBF000868
:10C10000AFBF0008AFBF0008AFBF0008AFBF000857
:10C11000AFBF0008AFBF0008AFBF0008AFBF000847
:10C12000AFBF000833C000083FC0000801239AE7F2
:10C13000022398E7124A136823EA06031360A1E773
:10C140000F4A536823EA06035360A3E70C4A936837
:10C1500023EA06039360A5E7094AD36823EA0606A3
:10C16000D660A7E702B0F0BC704700BF0000221005
:10C1700000003110001002400000014000080140A2
:10C18000000401408368194201D00120704700205B
:10C1900070470AB101617047090401617047C368C3
:10C1A00001EA030221EA030141EA02410161704709
:10C1B00082B0084B1B68084AA2FB03235B0A00FB02
:10C1C00003F3019300BF019B5A1E0192002BF9D18A
:10C1D00002B0704700000020D34D6210002800F02C
:10C1E000618270B582B00446036813F0010F2CD051
:10C1F000AA4B5B6803F00C03042B1DD0A74B5B68B4
:10C2000003F00C03082B12D0A368B3F5803F41D094
:10C21000002B55D103F1804303F504331A6822F44F
:10C2200080321A601A6822F480221A6037E09B4B31
:10C230005B6813F4803FE7D0984B1B6813F4003F12
:10C2400003D0A368002B00F02F82236813F0020FA5
:10C2500075D0924B5B6813F00C0F5FD08F4B5B680F
:10C2600003F00C03082B54D06369002B00F0898085
:10C270008B4B01221A60FEF787FD0546874B1B6832
:10C2800013F0020F74D1FEF77FFD401B0228F5D991
:10C29000032010E2814A136843F480331360A368DB
:10C2A00043B3FEF771FD05467C4B1B6813F4003F5A
:10C2B000CBD1FEF769FD401B6428F5D90320FAE1D4
:10C2C000B3F5A02F09D0754B1A6822F480321A609A
:10C2D0001A6822F480221A60E1E703F18043A3F593
:10C2E0003C331A6842F480221A601A6842F48032A1
:10C2F0001A60D4E7FEF748FD0546684B1B6813F447
:10C30000003FA2D0FEF740FD401B6428F5D9032072
:10C31000D1E1624B5B6813F4803FA5D15F4B1B6892
:10C3200013F0020F03D06369012B40F0BF815B4A19
:10C33000136823F0F803A16943EAC103136023687B
:10C3400013F0080F32D0E369002B45D0554B012282
:10C350001A60FEF719FD0546504B5B6A13F0020F99
:10C3600021D1FEF711FD401B0228F5D90320A2E1DF
:10C370004A4A136823F0F803A16943EAC103136032
:10C38000DDE7474B00221A60FEF7FEFC0546434BF3
:10C390001B6813F0020FD2D0FEF7F6FC401B0228F8
:10C3A000F5D9032087E10120FFF702FF236813F08E
:10C3B000040F00F09780394BDB6913F0805F1DD1CB
:10C3C000364BDA6942F08052DA61DB6903F0805360
:10C3D0000193019B012512E0324B00221A60FEF707
:10C3E000D3FC05462D4B5B6A13F0020FDED0FEF73F
:10C3F000CBFC401B0228F5D903205CE100252A4B29
:10C400001B6813F4807F11D02369012B22D0002BED
:10C4100038D103F1804303F504331A6A22F0010294
:10C420001A621A6A22F004021A6218E01E4A13689D
:10C4300043F480731360FEF7A7FC06461A4B1B6893
:10C4400013F4807FE0D1FEF79FFC801B6428F5D9B0
:10C45000032030E1114A136A43F001031362236998
:10C4600073B3FEF791FC06460C4B1B6A13F0020FE8
:10C4700037D1FEF789FC801B41F288339842F3D90B
:10C48000032018E1052B11D0044B1A6A22F0010297
:10C490001A621A6A22F004021A62E0E700100240EF
:10C4A000000042428004424200700040864B1A6AFB
:10C4B00042F004021A621A6A42F001021A62CEE7DE
:10C4C000FEF762FC0646804B1B6A13F0020F08D091
:10C4D000FEF75AFC801B41F288339842F3D90320BF
:10C4E000E9E075BBE36A002B6ED0774A526812F41C
:10C4F000803F05D0744A526802F00C02082A26D008
:10C50000022B4AD1704B1B6813F0805F07D06E4B33
:10C51000DB6A03F0F003626B934240F0C9806B4B1F
:10C5200000221A60FEF730FC0546674B1B6813F0CB
:10C53000006F13D0FEF728FC401B6428F5D90320B8
:10C54000B9E0614AD36923F08053D361CAE75E4AF8
:10C55000D26A12F4803FD3D00120ACE05A4AD36AA9
:10C5600023F0F003616B0B43D362D36A23F470634F
:10C57000216B0B43D362554B01221A60FEF704FC7A
:10C580000546514B1B6813F0006F1DD1FEF7FCFBF5
:10C59000401B6428F5D903208DE04B4AD36A23F46D
:10C5A0008033D362494B00221A60FEF7EDFB05464B
:10C5B000454B1B6813F0006F06D0FEF7E5FB401BF0
:10C5C0006428F5D9032076E0236A002B72D03E4A16
:10C5D000526802F00C02082A54D0022B11D03C4BB6
:10C5E00000221A60FEF7D0FB0446374B1B6813F09D
:10C5F000007F45D0FEF7C8FB001B0228F5D90320B9
:10C6000059E0334B00221A60FEF7BEFB05462E4B65
:10C610001B6813F0007F06D0FEF7B6FB401B022814
:10C62000F5D9032047E0636AB3F5803F1AD0264965
:10C630004B6823F47413626AA06A024313434B608D
:10C64000234B01221A60FEF79FFB04461E4B1B681A
:10C6500013F0007F12D1FEF797FB001B0228F5D9DB
:10C66000032028E0184AD36A61680B43D362D36A77
:10C6700023F00F03E1680B43D362D8E700201AE0F0
:10C68000002018E0012B18D00F4B5B6803F48031B9
:10C69000626A914213D103F47013A26A934210D1DB
:10C6A000002008E001207047012004E0012002E0A2
:10C6B000012000E0002002B070BD0120FBE7012056
:10C6C000F9E70120F7E700BF00100240680042428E
:10C6D00060004242F0B589B0304B04AC0FCB07C4C8
:10C6E00023802F4B6C460FCB84E80F002D4B5B68EB
:10C6F00003F00C02082A02D02B4809B0F0BDC3F3A6
:10C70000834208A90A4412F8104C13F4803F40D029
:10C710002449CB6A03F00F0308AA134413F8202C12
:10C72000CB6A13F4803F2ED0CB6AC3F3031C0CF109
:10C73000010CCE6AC6F303260236A6FB0467780115
:10C74000730140EAD6619D1B61EB0700810141EA5C
:10C750009561AB015B1B61EB0001C80040EA5370BF
:10C76000DD000146A81947EB01014B0243EAD05313
:10C77000450228461946ACFB0223FCF7BBF90D2CF9
:10C78000BBD14008B9E7084800FB04F0B0FBF2F069
:10C79000F5E7064800FB04F0AFE700BF18D6000835
:10C7A00040D600080010024000127A0000093D0047
:10C7B000002800F0A08070B50D460446524B1B685F
:10C7C00003F007038B420BD24F4A136823F0070391
:10C7D0000B431360136803F007038B4240F08D8016
:10C7E000236813F0020F17D013F0040F04D0474A48
:10C7F000536843F4E0635360236813F0080F04D0D8
:10C80000424A536843F460535360404A536823F0EC
:10C81000F003A1680B435360236813F0010F31D07C
:10C820006368012B20D0022B25D0384A126812F001
:10C83000020F64D035494A6822F0030213434B606B
:10C84000FEF7A2FA0646314B5B6803F00C03626800
:10C85000B3EB820F16D0FEF797FA801B41F28833B4
:10C860009842F0D9032045E0284A126812F4003FAC
:10C87000E0D101203EE0254A126812F0007FD9D1B4
:10C88000012037E0204B1B6803F00703AB420AD9B5
:10C890001D4A136823F007032B431360136803F04A
:10C8A0000703AB422DD1236813F0040F06D0174ABB
:10C8B000536823F4E063E1680B435360236813F08B
:10C8C000080F07D0114A536823F46053216943EAE3
:10C8D000C1035360FFF7FEFE0C4B5B68C3F3031309
:10C8E0000B4AD35CD8400B4B18600B4B1868FEF713
:10C8F00007FA002070BD012070470120FAE70120EF
:10C90000F8E70120F6E700BF0020024000100240D7
:10C9100028D600080000002008000020014B1868FD
:10C92000704700BF0000002008B5FFF7F7FF044B79
:10C930005B68C3F30223034AD35CD84008BD00BF41
:10C940000010024038D6000808B5FFF7E7FF044B97
:10C950005B68C3F3C223034AD35CD84008BD00BF61
:10C960000010024038D6000870B582B00446036853
:10C9700013F0010F36D06D4BDB6913F0805F40F090
:10C980008C806A4BDA6942F08052DA61DB6903F02D
:10C9900080530193019B0125654B1B6813F4807F35
:10C9A0007DD0624B1B6A13F4407311D0626802F4AD
:10C9B00040729A420CD05D4A136A23F440705D497C
:10C9C00001260E6000260E60106213F0010F7BD16D
:10C9D000564A136A23F4407361680B431362002DB7
:10C9E00040F08480236813F0020F06D04F4A53684A
:10C9F00023F44043A1680B435360236813F0040FF2
:10CA000006D04A4AD36A23F40033E1680B43D36269
:10CA1000236813F0080F06D0444AD36A23F4802316
:10CA200021690B43D362414BDB6A13F4003F04D10D
:10CA30003E4BDB6A13F4802F64D03C4B1B6813F031
:10CA4000805F58D1394B1B6813F0806F06D0374B8D
:10CA5000DB6A03F0F003A269934261D1334AD36ADF
:10CA600023F0F003A1690B43D362D36A23F470432C
:10CA700061690B43D362304B01221A60FEF784F9DF
:10CA800005462A4B1B6813F0005F3BD1FEF77CF98B
:10CA9000401B6428F5D9032040E000257CE7244AA8
:10CAA000136843F480731360FEF76EF90646204B5B
:10CAB0001B6813F4807F7FF474AFFEF765F9801B69
:10CAC0006428F4D9032029E0FEF75EF90646174BE7
:10CAD0001B6A13F0020F7FF47BAFFEF755F9801B42
:10CAE00041F288339842F2D9032017E0D36923F04A
:10CAF0008053D36176E70D4BDB6A03F470436269C0
:10CB000093420FD1236813F0100F0DD0074A5368DA
:10CB100023F48003E1690B435360002002B070BD31
:10CB20000120FBE70120F9E70020F7E700100240B1
:10CB300000700040400442427000424270B4036AF8
:10CB400023F001030362036A4668826922F07302DC
:10CB50000C6844EA020523F002028B6813430D4C73
:10CB6000A04209D00B4CA0420DD0466085614A68B6
:10CB70004263036270BC704723F00803CA68134322
:10CB800023F00403EEE726F440764A6932438E69C7
:10CB90001643EAE7002C014030B4036A23F48073A3
:10CBA0000362036A4568C26922F073020C6822437B
:10CBB00023F400738C6843EA04230F4CA04209D08D
:10CBC0000D4CA0420ED04560C2614A68C263036248
:10CBD00030BC704723F40063CC6843EA042323F499
:10CBE0008063EDE725F440554C6945EA04158C69EE
:10CBF00045EA0415E7E700BF002C014030B4036AA2
:10CC000023F480530362036A4468C26922F4E64253
:10CC10000D6842EA052223F400538D6843EA053388
:10CC2000074DA84206D04460C2614A6802640362AC
:10CC300030BC704724F480444D6944EA8514F2E71F
:10CC4000002C014030B4036A056A25F00105056235
:10CC5000846924F0F00444EA021423F00A030B432D
:10CC60008461036230BC704730B4056A25F010055A
:10CC700005628469036A24F4704444EA023423F0B0
:10CC8000A00343EA01138461036230BC70478368E8
:10CC900023F070030B4343F00703836070470000E9
:10CCA00090F83D30DBB2012B26D1022380F83D30D5
:10CCB0000368134A934214D0B3F1804F11D0A2F508
:10CCC000943293420DD002F58062934209D002F56E
:10CCD0008062934205D01A6842F001021A60002077
:10CCE00070479A6802F00702062A07D01A6842F0D5
:10CCF00001021A6000207047012070470020704731
:10CD0000002C014090F83D30DBB2012B2BD10223E7
:10CD100080F83D300268D36843F00103D3600368B4
:10CD2000134A934214D0B3F1804F11D0A2F594323C
:10CD300093420DD002F58062934209D002F58062E1
:10CD4000934205D01A6842F001021A600020704731
:10CD50009A6802F00702062A07D01A6842F0010218
:10CD60001A6000207047012070470020704700BF04
:10CD7000002C0140704770477047704710B504465B
:10CD800003681A6912F0020F11D0DA6812F0020F6C
:10CD90000DD06FF002021A610123037703689B69CB
:10CDA00013F0030F70D0FFF7E6FF0023237723680B
:10CDB0001A6912F0040F12D0DA6812F0040F0ED0C4
:10CDC0006FF004021A610223237723689B6913F42E
:10CDD000407F5FD02046FFF7CEFF002323772368F4
:10CDE0001A6912F0080F12D0DA6812F0080F0ED08C
:10CDF0006FF008021A61042323772368DB6913F0BC
:10CE0000030F4ED02046FFF7B6FF00232377236899
:10CE10001A6912F0100F12D0DA6812F0100F0ED04B
:10CE20006FF010021A61082323772368DB6913F47B
:10CE3000407F3DD02046FFF79EFF002323772368E5
:10CE40001A6912F0010F03D0DA6812F0010F36D11F
:10CE500023681A6912F0800F03D0DA6812F0800F8D
:10CE600034D123681A6912F0400F03D0DA6812F047
:10CE7000400F32D123681A6912F0200F03D0DA680C
:10CE800012F0200F30D110BDFFF774FF2046FFF7DE
:10CE900073FF8AE72046FFF76DFF2046FFF76CFF20
:10CEA0009BE72046FFF766FF2046FFF765FFACE7EC
:10CEB0002046FFF75FFF2046FFF75EFFBDE76FF0FC
:10CEC00001021A612046FDF705FAC1E76FF0800202
:10CED0001A61204600F0F6FAC3E76FF040021A61CB
:10CEE0002046FFF74AFFC5E76FF020021A6120468F
:10CEF00000F0E7FAC7E7000003681F4A90420ED02F
:10CF0000B0F1804F0BD0A2F59432904207D002F5D9
:10CF10008062904203D002F58062904203D123F0F8
:10CF200070034A681343144A90420ED0B0F1804F08
:10CF30000BD0A2F59432904207D002F58062904265
:10CF400003D002F58062904203D123F44073CA6893
:10CF5000134323F080034A69134303608B68C36261
:10CF60000B688362044B984202D0012343617047EF
:10CF70000B690363F9E700BF002C014040B310B513
:10CF8000044690F83D30F3B1022384F83D30214649
:10CF900051F8040BFFF7B0FF012384F8463084F802
:10CFA0003E3084F83F3084F8403084F8413084F8D3
:10CFB000423084F8433084F8443084F8453084F8B3
:10CFC0003D30002010BD80F83C30FDF751F8DBE724
:10CFD0000120704740B310B5044690F83D30F3B1DE
:10CFE000022384F83D30214651F8040BFFF784FFFB
:10CFF000012384F8463084F83E3084F83F3084F8CA
:10D00000403084F8413084F8423084F8433084F86A
:10D01000443084F8453084F83D30002010BD80F85D
:10D020003C30FCF79DFFDBE70120704740B310B5B3
:10D03000044690F83D30F3B1022384F83D30214698
:10D0400051F8040BFFF758FF012384F8463084F8A9
:10D050003E3084F83F3084F8403084F8413084F822
:10D06000423084F8433084F8443084F8453084F802
:10D070003D30002010BD80F83C30FCF75BFFDBE763
:10D080000120704730B4036A23F010030362036A7F
:10D090004468826922F4E6420D6842EA052223F0E0
:10D0A00020038D6843EA05130E4DA84209D00D4DAB
:10D0B000A8420ED0446082614A688263036230BC39
:10D0C000704723F08003CD6843EA051323F0400343
:10D0D000EDE724F440644D6944EA85048D6944EA2F
:10D0E0008504E7E7002C014090F83C30012B22D06A
:10D0F00010B50446012380F83C300C2A0BD8DFE839
:10D1000002F0070A0A0A0E0A0A0A120A0A0A160096
:10D110000068FFF713FD002084F83C0010BD006894
:10D12000FFF7B0FFF7E70068FFF736FDF3E70068A9
:10D13000FFF764FDEFE70220704738B590F83C3008
:10D14000012B60D004460D46012380F83C300C2AA8
:10D150001AD8DFE802F0071919191D191919311920
:10D16000191944000068FFF7E9FC2268936943F04D
:10D17000080393612268936923F004039361226892
:10D18000936929690B439361002084F83C0038BD02
:10D190000068FFF777FF2268936943F400639361A7
:10D1A0002268936923F480639361226893692969F3
:10D1B00043EA01239361E7E70068FFF7EDFC22688B
:10D1C000D36943F00803D3612268D36923F00403D1
:10D1D000D3612268D36929690B43D361D4E700681E
:10D1E000FFF70CFD2268D36943F40063D361226822
:10D1F000D36923F48063D3612268D369296943EA40
:10D200000123D361C0E70220C1E710B4846824F48D
:10D210007F4442EA03220A432243826010BC7047E3
:10D2200090F83C30012B66D010B50446012380F8FD
:10D230003C30022380F83D300268936823F47F433A
:10D2400023F0770393600B68602B40D022D8402BEB
:10D2500047D00BD9502B0ED1CA6849680068FFF738
:10D26000F1FC50212068FFF712FD04E0202B0CD0C8
:10D2700008D9302B09D0012384F83D30002084F8F0
:10D280003C0010BD0BB1102BF5D119462068FFF7FB
:10D29000FEFCF0E7702B0ED0B3F5005FEBD1CB684E
:10D2A0004A6889680068FFF7B0FF2268936843F412
:10D2B00080439360DFE7CB684A6889680068FFF7BE
:10D2C000A4FF2268936843F077039360D3E7CA68AA
:10D2D00049680068FFF7C8FC60212068FFF7D7FCA9
:10D2E000C9E7CA6849680068FFF7ACFC40212068BC
:10D2F000FFF7CDFCBFE70220704710B401F01F011B
:10D30000012303FA01F4036A23EA04030362036AB4
:10D3100002FA01F10B43036210BC704710B50446DA
:10D32000084671BB94F83E30DBB2013B18BF0123C5
:10D33000002B5FD100283DD1022384F83E3001222A
:10D3400001462068FFF7D9FF23682C4A934241D059
:10D3500023682A4A934242D0B3F1804F3FD0A2F5CE
:10D36000943293423BD002F58062934237D002F56B
:10D370008062934233D01A6842F001021A600020A2
:10D3800037E0042908D008290DD094F84130DBB2E9
:10D39000013B18BF0123CBE794F83F30DBB2013BE0
:10D3A00018BF0123C4E794F84030DBB2013B18BF3B
:10D3B0000123BDE7042805D0082807D0022384F8FC
:10D3C0004130BCE7022384F83F30B8E7022384F8F9
:10D3D0004030B4E75A6C42F400425A64B8E79A68A5
:10D3E00002F00702062A07D01A6842F001021A600A
:10D3F000002010BD0120FCE70020FAE7002C0140CE
:10D4000090F83C30012B2FD030B4012380F83C3011
:10D41000022380F83D3003685C689D6824F0700446
:10D420000A6822435A600368104A93420ED0B3F14F
:10D43000804F0BD0A2F59432934207D002F5806260
:10D44000934203D002F58062934204D125F0800517
:10D450004A6815439D60012380F83D30002380F821
:10D460003C30184630BC704702207047002C014009
:10D4700090F83C30012B22D0012380F83C30CB685F
:10D4800023F440738A68134323F480634A68134388
:10D4900023F400630A68134323F480530A69134397
:10D4A00023F400534A69134323F48043CA691343A6
:10D4B00002685364002380F83C301846704702200D
:10D4C000704770477047000010B504460268136942
:10D4D00023F44053C1680B4313618368026913430B
:10D4E00042691A430168CB6823F4B05323F00C035C
:10D4F0001343CB600268536923F4407381690B4383
:10D5000053610268124B9A421FD0FFF70DFA00EBED
:10D51000800303EB830362689200B3FBF2F20D48D1
:10D52000A0FB02314909642303FB11231B013233A1
:10D53000A0FB03235B0903F0F00202EB011203F0EE
:10D540000F03216813448B6010BDFFF7FDF9DEE780
:10D55000003801401F85EB5158B310B5044690F8D0
:10D5600039300BB3242384F839302268D36823F48C
:10D570000053D3602046FFF7A7FF2268136923F406
:10D58000904313612268536923F02A035361226890
:10D59000D36843F40053D3600020E063202384F871
:10D5A000393084F83A3010BD80F83830FCF7DEFDB1
:10D5B000D8E7012070470000002103E00A4B5B58C8
:10D5C0004350043109480A4B42189A42F6D3094A9B
:10D5D00002E0002342F8043B074B9A42F9D3FCF7E0
:10D5E00077FEFCF703FB704764D6000800000020BC
:10D5F0000C0000200C000020A4180020FEE7000012
:10D60000F8B500BFF8BC08BC9E467047F8B500BF2F
:08D61000F8BC08BC9E467047FF
:10D61800000004050607080900000000000D0000CE
:10D6280000000000000000000102030406070809CA
:10D6380000000000010203040102030405060708B4
:0CD64800090A0B0C0D0E0F100000000072
:08D65400D0B4FF7F01000000CB
:04D65C0059820008E7
:04D66000318200080B
:0CD664000024F400010000001000000091
:040000050800D5B961
:00000001FF
